{
  "contractName": "CharacterFactory",
  "abi": [
    {
      "constant": true,
      "inputs": [
        {
          "name": "",
          "type": "uint256"
        }
      ],
      "name": "characterToOwner",
      "outputs": [
        {
          "name": "",
          "type": "address"
        }
      ],
      "payable": false,
      "stateMutability": "view",
      "type": "function"
    },
    {
      "constant": false,
      "inputs": [
        {
          "name": "_name",
          "type": "string"
        },
        {
          "name": "_charType",
          "type": "string"
        }
      ],
      "name": "createCharacter",
      "outputs": [
        {
          "name": "engaged",
          "type": "bool"
        },
        {
          "name": "name",
          "type": "string"
        },
        {
          "name": "charType",
          "type": "string"
        },
        {
          "name": "dna",
          "type": "uint256"
        },
        {
          "name": "rdyTime",
          "type": "uint256"
        },
        {
          "name": "level",
          "type": "uint32"
        },
        {
          "name": "wins",
          "type": "uint16"
        },
        {
          "name": "losses",
          "type": "uint16"
        },
        {
          "name": "totalHealth",
          "type": "uint16"
        },
        {
          "name": "totalMana",
          "type": "uint16"
        }
      ],
      "payable": false,
      "stateMutability": "nonpayable",
      "type": "function"
    },
    {
      "constant": true,
      "inputs": [
        {
          "name": "",
          "type": "uint256"
        }
      ],
      "name": "characters",
      "outputs": [
        {
          "name": "engaged",
          "type": "bool"
        },
        {
          "name": "name",
          "type": "string"
        },
        {
          "name": "charType",
          "type": "string"
        },
        {
          "name": "dna",
          "type": "uint256"
        },
        {
          "name": "rdyTime",
          "type": "uint256"
        },
        {
          "name": "level",
          "type": "uint32"
        },
        {
          "name": "wins",
          "type": "uint16"
        },
        {
          "name": "losses",
          "type": "uint16"
        },
        {
          "name": "totalHealth",
          "type": "uint16"
        },
        {
          "name": "totalMana",
          "type": "uint16"
        }
      ],
      "payable": false,
      "stateMutability": "view",
      "type": "function"
    },
    {
      "constant": true,
      "inputs": [
        {
          "name": "newOwner",
          "type": "address"
        }
      ],
      "name": "owner",
      "outputs": [
        {
          "name": "",
          "type": "address"
        }
      ],
      "payable": false,
      "stateMutability": "view",
      "type": "function"
    },
    {
      "anonymous": false,
      "inputs": [
        {
          "indexed": false,
          "name": "newOwner",
          "type": "address"
        },
        {
          "indexed": false,
          "name": "charType",
          "type": "string"
        },
        {
          "indexed": false,
          "name": "dna",
          "type": "uint256"
        }
      ],
      "name": "transferOwnership",
      "type": "function",
      "constant": false,
      "outputs": [],
      "payable": false,
      "stateMutability": "nonpayable"
    },
    {
      "anonymous": false,
      "inputs": [
        {
          "indexed": false,
          "name": "id",
          "type": "uint256"
        },
        {
          "indexed": false,
          "name": "name",
          "type": "string"
        },
        {
          "indexed": false,
          "name": "charType",
          "type": "string"
        },
        {
          "indexed": false,
          "name": "dna",
          "type": "uint256"
        }
      ],
      "name": "NewCharacter",
      "type": "event"
    },
    {
      "anonymous": false,
      "inputs": [
        {
          "indexed": true,
          "name": "previousOwner",
          "type": "address"
        },
        {
          "indexed": true,
          "name": "newOwner",
          "type": "address"
        }
      ],
      "name": "OwnershipTransferred",
      "type": "event"
    }
  ],
  "bytecode": "0x606060405260006001556154606002556010600355600354600a0a60045562093a80600555336000806101000a81548173ffffffffffffffffffffffffffffffffffffffff021916908373ffffffffffffffffffffffffffffffffffffffff160217905550610dbd806100736000396000f30060606040526004361061006d576000357c0100000000000000000000000000000000000000000000000000000000900463ffffffff16806319e7ce8b14610072578063375c5881146100d55780634810bc59146101755780638da5cb5b1461031f578063f2fde38b14610374575b600080fd5b341561007d57600080fd5b61009360048080359060200190919050506103ad565b604051808273ffffffffffffffffffffffffffffffffffffffff1673ffffffffffffffffffffffffffffffffffffffff16815260200191505060405180910390f35b34156100e057600080fd5b610173600480803590602001908201803590602001908080601f0160208091040260200160405190810160405280939291908181526020018383808284378201915050505050509190803590602001908201803590602001908080601f016020809104026020016040519081016040528093929190818152602001838380828437820191505050505050919050506103e0565b005b341561018057600080fd5b610196600480803590602001909190505061044b565b604051808b15151515815260200180602001806020018a81526020018981526020018863ffffffff1663ffffffff1681526020018761ffff1661ffff1681526020018661ffff1661ffff1681526020018561ffff1661ffff1681526020018461ffff1661ffff16815260200183810383528c8181546001816001161561010002031660029004815260200191508054600181600116156101000203166002900480156102835780601f1061025857610100808354040283529160200191610283565b820191906000526020600020905b81548152906001019060200180831161026657829003601f168201915b505083810382528b8181546001816001161561010002031660029004815260200191508054600181600116156101000203166002900480156103065780601f106102db57610100808354040283529160200191610306565b820191906000526020600020905b8154815290600101906020018083116102e957829003601f168201915b50509c5050505050505050505050505060405180910390f35b341561032a57600080fd5b610332610501565b604051808273ffffffffffffffffffffffffffffffffffffffff1673ffffffffffffffffffffffffffffffffffffffff16815260200191505060405180910390f35b341561037f57600080fd5b6103ab600480803573ffffffffffffffffffffffffffffffffffffffff16906020019091905050610526565b005b60076020528060005260406000206000915054906101000a900473ffffffffffffffffffffffffffffffffffffffff1681565b600080600860003373ffffffffffffffffffffffffffffffffffffffff1673ffffffffffffffffffffffffffffffffffffffff1681526020019081526020016000205414151561042f57600080fd5b610439838361067b565b90506104468383836107be565b505050565b60068181548110151561045a57fe5b90600052602060002090600802016000915090508060000160009054906101000a900460ff1690806001019080600201908060030154908060040154908060050160009054906101000a900463ffffffff16908060050160049054906101000a900461ffff16908060050160069054906101000a900461ffff16908060050160089054906101000a900461ffff169080600501600a9054906101000a900461ffff1690508a565b6000809054906101000a900473ffffffffffffffffffffffffffffffffffffffff1681565b6000809054906101000a900473ffffffffffffffffffffffffffffffffffffffff1673ffffffffffffffffffffffffffffffffffffffff163373ffffffffffffffffffffffffffffffffffffffff1614151561058157600080fd5b600073ffffffffffffffffffffffffffffffffffffffff168173ffffffffffffffffffffffffffffffffffffffff16141515156105bd57600080fd5b8073ffffffffffffffffffffffffffffffffffffffff166000809054906101000a900473ffffffffffffffffffffffffffffffffffffffff1673ffffffffffffffffffffffffffffffffffffffff167f8be0079c531659141344cd1fd0a4f28419497f9722a3daafe3b4186f6b6457e060405160405180910390a3806000806101000a81548173ffffffffffffffffffffffffffffffffffffffff021916908373ffffffffffffffffffffffffffffffffffffffff16021790555050565b600061069260018054610b8690919063ffffffff16565b600181905550600454428484600154336040518086815260200185805190602001908083835b6020831015156106dd57805182526020820191506020810190506020830392506106b8565b6001836020036101000a03801982511681845116808217855250505050505090500184805190602001908083835b602083101515610730578051825260208201915060208101905060208303925061070b565b6001836020036101000a0380198251168184511680821785525050505050509050018381526020018273ffffffffffffffffffffffffffffffffffffffff1673ffffffffffffffffffffffffffffffffffffffff166c01000000000000000000000000028152601401955050505050506040518091039020600190048115156107b557fe5b06905092915050565b60008061546091506001600680548060010182816107dc9190610ba4565b91600052602060002090600802016000610140604051908101604052806000151581526020018a8152602001898152602001888152602001878152602001600163ffffffff168152602001600061ffff168152602001600061ffff168152602001606461ffff168152602001603261ffff16815250909190915060008201518160000160006101000a81548160ff0219169083151502179055506020820151816001019080519060200190610892929190610bd6565b5060408201518160020190805190602001906108af929190610bd6565b50606082015181600301556080820151816004015560a08201518160050160006101000a81548163ffffffff021916908363ffffffff16021790555060c08201518160050160046101000a81548161ffff021916908361ffff16021790555060e08201518160050160066101000a81548161ffff021916908361ffff1602179055506101008201518160050160086101000a81548161ffff021916908361ffff16021790555061012082015181600501600a6101000a81548161ffff021916908361ffff1602179055505050039050336007600083815260200190815260200160002060006101000a81548173ffffffffffffffffffffffffffffffffffffffff021916908373ffffffffffffffffffffffffffffffffffffffff160217905550610a236001600860003373ffffffffffffffffffffffffffffffffffffffff1673ffffffffffffffffffffffffffffffffffffffff16815260200190815260200160002054610b8690919063ffffffff16565b600860003373ffffffffffffffffffffffffffffffffffffffff1673ffffffffffffffffffffffffffffffffffffffff168152602001908152602001600020819055507f677d0af8169b2132ca89db7239e5e2b9b34b6a549f5109c9155155decda5d3d681868686604051808581526020018060200180602001848152602001838103835286818151815260200191508051906020019080838360005b83811015610adb578082015181840152602081019050610ac0565b50505050905090810190601f168015610b085780820380516001836020036101000a031916815260200191505b50838103825285818151815260200191508051906020019080838360005b83811015610b41578082015181840152602081019050610b26565b50505050905090810190601f168015610b6e5780820380516001836020036101000a031916815260200191505b50965050505050505060405180910390a15050505050565b6000808284019050838110151515610b9a57fe5b8091505092915050565b815481835581811511610bd157600802816008028360005260206000209182019101610bd09190610c56565b5b505050565b828054600181600116156101000203166002900490600052602060002090601f016020900481019282601f10610c1757805160ff1916838001178555610c45565b82800160010185558215610c45579182015b82811115610c44578251825591602001919060010190610c29565b5b509050610c529190610d24565b5090565b610d2191905b80821115610d1d57600080820160006101000a81549060ff0219169055600182016000610c899190610d49565b600282016000610c999190610d49565b600382016000905560048201600090556005820160006101000a81549063ffffffff02191690556005820160046101000a81549061ffff02191690556005820160066101000a81549061ffff02191690556005820160086101000a81549061ffff021916905560058201600a6101000a81549061ffff021916905550600801610c5c565b5090565b90565b610d4691905b80821115610d42576000816000905550600101610d2a565b5090565b90565b50805460018160011615610100020316600290046000825580601f10610d6f5750610d8e565b601f016020900490600052602060002090810190610d8d9190610d24565b5b505600a165627a7a72305820a4f1b46f39ade5b11fcd44e46fec61ae7f58a7995f24b0a304ce5669688daf980029",
  "source": "pragma solidity ^0.4.18;\n\n// not needed yet.\n//import \"./zeppelin-solidity/contracts/token/ERC721/ERC721.sol\";\nimport \"./zeppelin-solidity/contracts/ownership/Ownable.sol\";\nimport \"./zeppelin-solidity/contracts/math/SafeMath.sol\";\n\n\n/// @title SkeletorFactor\n/// @author LD2045\n/// @dev This contract will be an attempt to make a game like World of Warcraft on Etheruem using the ERC721 standard. \ncontract CharacterFactory is Ownable {\n    /// @notice Declarations using SafeMath. These datatypes will be able to inherit contract.\n    using SafeMath for uint256;\n    using SafeMath for uint32;\n    using SafeMath for uint16;\n    using SafeMath for uint8;\n\n    /// @notice Events.\n    event NewCharacter(uint id,\n                    string name,\n                    string charType,\n                    uint dna);\n\n    /// @notice State variables, stored permanently in the blockchain.\n    /// @dev enums are explicitly convertible to and from all integer types but implicit conversion is not allowed.\n    enum ArmourTypes {Chest, Helm, Boots, Leggings, Gloves, Shield}\n    enum WeaponTypes {Sword, Axe, Wand, Gun, Hammer, Fist}\n    enum RareColor {Grey, Blue, DarkBlue, Purple} // <Left to right> <Common to rare>\n    ArmourTypes armour;\n    WeaponTypes weapon;\n    RareColor colorTracker;\n    uint randNonce = 0;\n    uint coowlDown = (1 days) / 4;\n    uint digits = 16;\n    uint modShortener = 10 ** digits; // can later use the modulus operator % to shorten an integer to 16 digits.\n    uint cooldownTime = 7 days;\n\n    struct Character {\n        bool engaged;\n        string name;\n        string charType;\n        uint dna;\n        uint rdyTime;\n        uint32 level;\n        uint16 wins;\n        uint16 losses;\n        uint16 totalHealth;\n        uint16 totalMana;\n        mapping (int8 => string) weapons;\n        mapping (int8 => string) armours;\n    }\n\n    /// @notice An array(vector) of Characters. \n    Character[] public characters;\n\n    mapping (uint => address) public characterToOwner;\n    mapping (address => uint) ownerCharacterCount;\n\n    function _createCharacter(string _name, string _charType, uint _dna) internal {\n        uint rdy = (1 days) / 4;\n        uint id = characters.push(Character(false, _name, _charType, _dna, rdy, 1, 0, 0, 100, 50)) - 1;\n\n        // Get ownership if zombie and inc total zombies owned.\n        characterToOwner[id] = msg.sender;\n        ownerCharacterCount[msg.sender] = ownerCharacterCount[msg.sender].add(1);\n        NewCharacter(id, _name, _charType, _dna);\n    }\n\n    /// @notice internal - like private but can also be called by contracts that inherit from this one.\n    function _generateRandomness(string _name, string _charType) internal returns (uint) {\n        randNonce = randNonce.add(1);\n        return uint(keccak256(now, _name, _charType, randNonce, msg.sender)) % modShortener;\n    }\n\n\n    function createCharacter(string _name, string _charType) public {\n        require(ownerCharacterCount[msg.sender] == 0);// make sure they are the owner\n        uint randDna = _generateRandomness(_name, _charType);\n        _createCharacter(_name, _charType, randDna);\n    }\n\n    \n}",
  "sourcePath": "/home/ancientevil/SmartContractProjects/SmartContractProjects/Skeletor/contracts/CharacterFactory.sol",
  "compiler": {
    "name": "solc",
    "version": "0.4.18+commit.9cf6e910.Emscripten.clang"
  },
  "schemaVersion": "1.0.1",
  "updatedAt": "2018-03-18T21:19:42.823Z"
}