{
  "contractName": "CharacterFactory",
  "abi": [
    {
      "constant": true,
      "inputs": [
        {
          "name": "",
          "type": "uint256"
        }
      ],
      "name": "characterToOwner",
      "outputs": [
        {
          "name": "",
          "type": "address"
        }
      ],
      "payable": false,
      "stateMutability": "view",
      "type": "function"
    },
    {
      "constant": true,
      "inputs": [
        {
          "name": "",
          "type": "uint256"
        }
      ],
      "name": "characters",
      "outputs": [
        {
          "name": "engaged",
          "type": "bool"
        },
        {
          "name": "name",
          "type": "string"
        },
        {
          "name": "charType",
          "type": "string"
        },
        {
          "name": "dna",
          "type": "uint256"
        },
        {
          "name": "rdyTime",
          "type": "uint256"
        },
        {
          "name": "level",
          "type": "uint32"
        },
        {
          "name": "wins",
          "type": "uint16"
        },
        {
          "name": "losses",
          "type": "uint16"
        },
        {
          "name": "totalHealth",
          "type": "uint16"
        },
        {
          "name": "totalMana",
          "type": "uint16"
        }
      ],
      "payable": false,
      "stateMutability": "view",
      "type": "function"
    },
    {
      "constant": true,
      "inputs": [],
      "name": "owner",
      "outputs": [
        {
          "name": "",
          "type": "address"
        }
      ],
      "payable": false,
      "stateMutability": "view",
      "type": "function"
    },
    {
      "constant": false,
      "inputs": [
        {
          "name": "newOwner",
          "type": "address"
        }
      ],
      "name": "transferOwnership",
      "outputs": [],
      "payable": false,
      "stateMutability": "nonpayable",
      "type": "function"
    },
    {
      "anonymous": false,
      "inputs": [
        {
          "indexed": false,
          "name": "name",
          "type": "string"
        },
        {
          "indexed": false,
          "name": "charType",
          "type": "string"
        },
        {
          "indexed": false,
          "name": "dna",
          "type": "uint256"
        }
      ],
      "name": "NewCharacter",
      "type": "event"
    },
    {
      "anonymous": false,
      "inputs": [
        {
          "indexed": true,
          "name": "previousOwner",
          "type": "address"
        },
        {
          "indexed": true,
          "name": "newOwner",
          "type": "address"
        }
      ],
      "name": "OwnershipTransferred",
      "type": "event"
    }
  ],
  "bytecode": "0x606060405260006001556154606002556010600355600354600a0a60045562093a80600555336000806101000a81548173ffffffffffffffffffffffffffffffffffffffff021916908373ffffffffffffffffffffffffffffffffffffffff160217905550610591806100736000396000f300606060405260043610610062576000357c0100000000000000000000000000000000000000000000000000000000900463ffffffff16806319e7ce8b146100675780634810bc59146100ca5780638da5cb5b14610274578063f2fde38b146102c9575b600080fd5b341561007257600080fd5b6100886004808035906020019091905050610302565b604051808273ffffffffffffffffffffffffffffffffffffffff1673ffffffffffffffffffffffffffffffffffffffff16815260200191505060405180910390f35b34156100d557600080fd5b6100eb6004808035906020019091905050610335565b604051808b15151515815260200180602001806020018a81526020018981526020018863ffffffff1663ffffffff1681526020018761ffff1661ffff1681526020018661ffff1661ffff1681526020018561ffff1661ffff1681526020018461ffff1661ffff16815260200183810383528c8181546001816001161561010002031660029004815260200191508054600181600116156101000203166002900480156101d85780601f106101ad576101008083540402835291602001916101d8565b820191906000526020600020905b8154815290600101906020018083116101bb57829003601f168201915b505083810382528b81815460018160011615610100020316600290048152602001915080546001816001161561010002031660029004801561025b5780601f106102305761010080835404028352916020019161025b565b820191906000526020600020905b81548152906001019060200180831161023e57829003601f168201915b50509c5050505050505050505050505060405180910390f35b341561027f57600080fd5b6102876103eb565b604051808273ffffffffffffffffffffffffffffffffffffffff1673ffffffffffffffffffffffffffffffffffffffff16815260200191505060405180910390f35b34156102d457600080fd5b610300600480803573ffffffffffffffffffffffffffffffffffffffff16906020019091905050610410565b005b60076020528060005260406000206000915054906101000a900473ffffffffffffffffffffffffffffffffffffffff1681565b60068181548110151561034457fe5b90600052602060002090600802016000915090508060000160009054906101000a900460ff1690806001019080600201908060030154908060040154908060050160009054906101000a900463ffffffff16908060050160049054906101000a900461ffff16908060050160069054906101000a900461ffff16908060050160089054906101000a900461ffff169080600501600a9054906101000a900461ffff1690508a565b6000809054906101000a900473ffffffffffffffffffffffffffffffffffffffff1681565b6000809054906101000a900473ffffffffffffffffffffffffffffffffffffffff1673ffffffffffffffffffffffffffffffffffffffff163373ffffffffffffffffffffffffffffffffffffffff1614151561046b57600080fd5b600073ffffffffffffffffffffffffffffffffffffffff168173ffffffffffffffffffffffffffffffffffffffff16141515156104a757600080fd5b8073ffffffffffffffffffffffffffffffffffffffff166000809054906101000a900473ffffffffffffffffffffffffffffffffffffffff1673ffffffffffffffffffffffffffffffffffffffff167f8be0079c531659141344cd1fd0a4f28419497f9722a3daafe3b4186f6b6457e060405160405180910390a3806000806101000a81548173ffffffffffffffffffffffffffffffffffffffff021916908373ffffffffffffffffffffffffffffffffffffffff160217905550505600a165627a7a72305820e63692f34fb558f026d66b0605288d2705e99118fcd17f35f16de93fef7d07e60029",
  "source": "pragma solidity ^0.4.18;\n\n// not needed yet.\n//import \"./zeppelin-solidity/contracts/token/ERC721/ERC721.sol\";\nimport \"./zeppelin-solidity/contracts/ownership/Ownable.sol\";\nimport \"./zeppelin-solidity/contracts/math/SafeMath.sol\";\n\n\n/// @title SkeletorFactor\n/// @author LD2045\n/// @dev This contract will be an attempt to make a game like World of Warcraft on Etheruem using the ERC721 standard. \ncontract CharacterFactory is Ownable {\n    /// @notice Declarations using SafeMath. These datatypes will be able to inherit contract.\n    using SafeMath for uint256;\n    using SafeMath for uint32;\n    using SafeMath for uint16;\n\n    /// @notice Events.\n    event NewCharacter(string name,\n                    string charType,\n                    uint dna);\n\n    /// @notice State variables, stored permanently in the blockchain.\n    /// @dev enums are explicitly convertible to and from all integer types but implicit conversion is not allowed.\n    enum ArmourTypes {Chest, Helm, Boots, Leggings, Gloves, Shield}\n    enum WeaponTypes {Sword, Axe, Wand, Gun, Hammer, Fist}\n    ArmourTypes armour;\n    WeaponTypes weapon;\n    uint randNonce = 0;\n    uint coowlDown = (1 days) / 4;\n    uint digits = 16;\n    uint modShortener = 10 ** digits; // can later use the modulus operator % to shorten an integer to 16 digits.\n    uint cooldownTime = 7 days;\n\n    struct Character {\n        bool engaged;\n        string name;\n        string charType;\n        uint dna;\n        uint rdyTime;\n        uint32 level;\n        uint16 wins;\n        uint16 losses;\n        uint16 totalHealth;\n        uint16 totalMana;\n        mapping (uint16 => mapping (string => uint16)) weapons;\n        mapping (uint16 => mapping (string => uint16)) armours;\n    }\n\n    /// @notice An array(vector) of Characters. \n    Character[] public characters;\n\n    mapping (uint => address) public characterToOwner;\n    mapping (address => uint) ownerCharacterCount;\n\n    /// @notice internal - like private but can also be called by contracts that inherit from this one.\n    /// @notice view - no data will be saved/changed, only read.\n    function _generateRandomness(string _str) internal view returns (uint) {\n        randNonce = randNonce.add(1);\n        return uint(keccak256(now, _str, randNonce, msg.sender)) % modShortener;\n    }\n\n    \n}",
  "sourcePath": "/home/ancientevil/SmartContractProjects/SmartContractProjects/Skeletor/contracts/CharacterFactory.sol",
  "compiler": {
    "name": "solc",
    "version": "0.4.18+commit.9cf6e910.Emscripten.clang"
  },
  "schemaVersion": "1.0.1",
  "updatedAt": "2018-03-18T20:05:16.028Z"
}