{
  "contractName": "CharacterFactory",
  "abi": [
    {
      "constant": true,
      "inputs": [
        {
          "name": "",
          "type": "uint256"
        }
      ],
      "name": "characterToOwner",
      "outputs": [
        {
          "name": "",
          "type": "address"
        }
      ],
      "payable": false,
      "stateMutability": "view",
      "type": "function"
    },
    {
      "constant": true,
      "inputs": [
        {
          "name": "",
          "type": "uint256"
        }
      ],
      "name": "characters",
      "outputs": [
        {
          "name": "engaged",
          "type": "bool"
        },
        {
          "name": "name",
          "type": "string"
        },
        {
          "name": "charType",
          "type": "string"
        },
        {
          "name": "dna",
          "type": "uint256"
        },
        {
          "name": "level",
          "type": "uint16"
        }
      ],
      "payable": false,
      "stateMutability": "view",
      "type": "function"
    },
    {
      "constant": true,
      "inputs": [
        {
          "name": "",
          "type": "uint256"
        }
      ],
      "name": "characterStatistics",
      "outputs": [
        {
          "name": "wins",
          "type": "uint16"
        },
        {
          "name": "losses",
          "type": "uint16"
        },
        {
          "name": "totalHealth",
          "type": "uint16"
        },
        {
          "name": "totalMana",
          "type": "uint16"
        },
        {
          "name": "strength",
          "type": "uint16"
        },
        {
          "name": "intelligence",
          "type": "uint16"
        },
        {
          "name": "agility",
          "type": "uint16"
        },
        {
          "name": "defense",
          "type": "uint16"
        },
        {
          "name": "attackPower",
          "type": "uint16"
        }
      ],
      "payable": false,
      "stateMutability": "view",
      "type": "function"
    },
    {
      "constant": true,
      "inputs": [],
      "name": "owner",
      "outputs": [
        {
          "name": "",
          "type": "address"
        }
      ],
      "payable": false,
      "stateMutability": "view",
      "type": "function"
    },
    {
      "constant": false,
      "inputs": [
        {
          "name": "newOwner",
          "type": "address"
        }
      ],
      "name": "transferOwnership",
      "outputs": [],
      "payable": false,
      "stateMutability": "nonpayable",
      "type": "function"
    },
    {
      "anonymous": false,
      "inputs": [
        {
          "indexed": false,
          "name": "id",
          "type": "uint256"
        },
        {
          "indexed": false,
          "name": "name",
          "type": "string"
        },
        {
          "indexed": false,
          "name": "charType",
          "type": "string"
        },
        {
          "indexed": false,
          "name": "dna",
          "type": "uint256"
        }
      ],
      "name": "NewCharacter",
      "type": "event"
    },
    {
      "anonymous": false,
      "inputs": [
        {
          "indexed": true,
          "name": "previousOwner",
          "type": "address"
        },
        {
          "indexed": true,
          "name": "newOwner",
          "type": "address"
        }
      ],
      "name": "OwnershipTransferred",
      "type": "event"
    },
    {
      "constant": false,
      "inputs": [
        {
          "name": "_name",
          "type": "string"
        },
        {
          "name": "_charType",
          "type": "string"
        }
      ],
      "name": "createCharacter",
      "outputs": [],
      "payable": false,
      "stateMutability": "nonpayable",
      "type": "function"
    },
    {
      "constant": true,
      "inputs": [],
      "name": "GetCallingAddr",
      "outputs": [
        {
          "name": "",
          "type": "address"
        }
      ],
      "payable": false,
      "stateMutability": "view",
      "type": "function"
    },
    {
      "constant": true,
      "inputs": [
        {
          "name": "_addr",
          "type": "address"
        }
      ],
      "name": "GetPassedAddr",
      "outputs": [
        {
          "name": "",
          "type": "address"
        }
      ],
      "payable": false,
      "stateMutability": "view",
      "type": "function"
    },
    {
      "constant": true,
      "inputs": [],
      "name": "GetAddrZero",
      "outputs": [
        {
          "name": "",
          "type": "address"
        }
      ],
      "payable": false,
      "stateMutability": "view",
      "type": "function"
    }
  ],
  "bytecode": "0x60606040526000600155662386f26fc10000600255336000806101000a81548173ffffffffffffffffffffffffffffffffffffffff021916908373ffffffffffffffffffffffffffffffffffffffff160217905550611024806100636000396000f300606060405260043610610099576000357c0100000000000000000000000000000000000000000000000000000000900463ffffffff16806319e7ce8b1461009e578063375c5881146101015780634810bc59146101a15780638a5dffcb146103045780638da5cb5b146103bb57806392a27a9f14610410578063b46c510714610489578063d217db40146104de578063f2fde38b14610533575b600080fd5b34156100a957600080fd5b6100bf600480803590602001909190505061056c565b604051808273ffffffffffffffffffffffffffffffffffffffff1673ffffffffffffffffffffffffffffffffffffffff16815260200191505060405180910390f35b341561010c57600080fd5b61019f600480803590602001908201803590602001908080601f0160208091040260200160405190810160405280939291908181526020018383808284378201915050505050509190803590602001908201803590602001908080601f0160208091040260200160405190810160405280939291908181526020018383808284378201915050505050509190505061059f565b005b34156101ac57600080fd5b6101c2600480803590602001909190505061060d565b604051808615151515815260200180602001806020018581526020018461ffff1661ffff16815260200183810383528781815460018160011615610100020316600290048152602001915080546001816001161561010002031660029004801561026d5780601f106102425761010080835404028352916020019161026d565b820191906000526020600020905b81548152906001019060200180831161025057829003601f168201915b50508381038252868181546001816001161561010002031660029004815260200191508054600181600116156101000203166002900480156102f05780601f106102c5576101008083540402835291602001916102f0565b820191906000526020600020905b8154815290600101906020018083116102d357829003601f168201915b505097505050505050505060405180910390f35b341561030f57600080fd5b610325600480803590602001909190505061066b565b604051808a61ffff1661ffff1681526020018961ffff1661ffff1681526020018861ffff1661ffff1681526020018761ffff1661ffff1681526020018661ffff1661ffff1681526020018561ffff1661ffff1681526020018461ffff1661ffff1681526020018361ffff1661ffff1681526020018261ffff1661ffff168152602001995050505050505050505060405180910390f35b34156103c657600080fd5b6103ce610743565b604051808273ffffffffffffffffffffffffffffffffffffffff1673ffffffffffffffffffffffffffffffffffffffff16815260200191505060405180910390f35b341561041b57600080fd5b610447600480803573ffffffffffffffffffffffffffffffffffffffff16906020019091905050610768565b604051808273ffffffffffffffffffffffffffffffffffffffff1673ffffffffffffffffffffffffffffffffffffffff16815260200191505060405180910390f35b341561049457600080fd5b61049c610772565b604051808273ffffffffffffffffffffffffffffffffffffffff1673ffffffffffffffffffffffffffffffffffffffff16815260200191505060405180910390f35b34156104e957600080fd5b6104f161077a565b604051808273ffffffffffffffffffffffffffffffffffffffff1673ffffffffffffffffffffffffffffffffffffffff16815260200191505060405180910390f35b341561053e57600080fd5b61056a600480803573ffffffffffffffffffffffffffffffffffffffff16906020019091905050610782565b005b60056020528060005260406000206000915054906101000a900473ffffffffffffffffffffffffffffffffffffffff1681565b60006003600660003373ffffffffffffffffffffffffffffffffffffffff1673ffffffffffffffffffffffffffffffffffffffff16815260200190815260200160002054111515156105f057600080fd5b6105fb6002546108d7565b9050610608838383610978565b505050565b60038181548110151561061c57fe5b90600052602060002090600802016000915090508060000160009054906101000a900460ff1690806001019080600201908060030154908060040160009054906101000a900461ffff16905085565b60048181548110151561067a57fe5b90600052602060002090016000915090508060000160009054906101000a900461ffff16908060000160029054906101000a900461ffff16908060000160049054906101000a900461ffff16908060000160069054906101000a900461ffff16908060000160089054906101000a900461ffff169080600001600a9054906101000a900461ffff169080600001600c9054906101000a900461ffff169080600001600e9054906101000a900461ffff16908060000160109054906101000a900461ffff16905089565b6000809054906101000a900473ffffffffffffffffffffffffffffffffffffffff1681565b6000819050919050565b600033905090565b600080905090565b6000809054906101000a900473ffffffffffffffffffffffffffffffffffffffff1673ffffffffffffffffffffffffffffffffffffffff163373ffffffffffffffffffffffffffffffffffffffff161415156107dd57600080fd5b600073ffffffffffffffffffffffffffffffffffffffff168173ffffffffffffffffffffffffffffffffffffffff161415151561081957600080fd5b8073ffffffffffffffffffffffffffffffffffffffff166000809054906101000a900473ffffffffffffffffffffffffffffffffffffffff1673ffffffffffffffffffffffffffffffffffffffff167f8be0079c531659141344cd1fd0a4f28419497f9722a3daafe3b4186f6b6457e060405160405180910390a3806000806101000a81548173ffffffffffffffffffffffffffffffffffffffff021916908373ffffffffffffffffffffffffffffffffffffffff16021790555050565b60006108ee60018054610e4b90919063ffffffff16565b60018190555081426001543362015180604051808581526020018481526020018373ffffffffffffffffffffffffffffffffffffffff1673ffffffffffffffffffffffffffffffffffffffff166c0100000000000000000000000002815260140182815260200194505050505060405180910390206001900481151561097057fe5b069050919050565b6000806001600380548060010182816109919190610e69565b9160005260206000209060080201600060a0604051908101604052806000151581526020018a8152602001898152602001888152602001600161ffff16815250909190915060008201518160000160006101000a81548160ff0219169083151502179055506020820151816001019080519060200190610a12929190610e9b565b506040820151816002019080519060200190610a2f929190610e9b565b506060820151816003015560808201518160040160006101000a81548161ffff021916908361ffff1602179055505050039150600382815481101515610a7157fe5b9060005260206000209060080201905061012060405190810160405280600061ffff168152602001600061ffff168152602001606461ffff168152602001603261ffff168152602001600a61ffff168152602001600a61ffff168152602001600a61ffff168152602001600a61ffff168152602001601961ffff1681525081600501600080815260200190815260200160002060008201518160000160006101000a81548161ffff021916908361ffff16021790555060208201518160000160026101000a81548161ffff021916908361ffff16021790555060408201518160000160046101000a81548161ffff021916908361ffff16021790555060608201518160000160066101000a81548161ffff021916908361ffff16021790555060808201518160000160086101000a81548161ffff021916908361ffff16021790555060a082015181600001600a6101000a81548161ffff021916908361ffff16021790555060c082015181600001600c6101000a81548161ffff021916908361ffff16021790555060e082015181600001600e6101000a81548161ffff021916908361ffff1602179055506101008201518160000160106101000a81548161ffff021916908361ffff160217905550905050336005600084815260200190815260200160002060006101000a81548173ffffffffffffffffffffffffffffffffffffffff021916908373ffffffffffffffffffffffffffffffffffffffff160217905550610ce86001600660003373ffffffffffffffffffffffffffffffffffffffff1673ffffffffffffffffffffffffffffffffffffffff16815260200190815260200160002054610e4b90919063ffffffff16565b600660003373ffffffffffffffffffffffffffffffffffffffff1673ffffffffffffffffffffffffffffffffffffffff168152602001908152602001600020819055507f677d0af8169b2132ca89db7239e5e2b9b34b6a549f5109c9155155decda5d3d682868686604051808581526020018060200180602001848152602001838103835286818151815260200191508051906020019080838360005b83811015610da0578082015181840152602081019050610d85565b50505050905090810190601f168015610dcd5780820380516001836020036101000a031916815260200191505b50838103825285818151815260200191508051906020019080838360005b83811015610e06578082015181840152602081019050610deb565b50505050905090810190601f168015610e335780820380516001836020036101000a031916815260200191505b50965050505050505060405180910390a15050505050565b6000808284019050838110151515610e5f57fe5b8091505092915050565b815481835581811511610e9657600802816008028360005260206000209182019101610e959190610f1b565b5b505050565b828054600181600116156101000203166002900490600052602060002090601f016020900481019282601f10610edc57805160ff1916838001178555610f0a565b82800160010185558215610f0a579182015b82811115610f09578251825591602001919060010190610eee565b5b509050610f179190610f8b565b5090565b610f8891905b80821115610f8457600080820160006101000a81549060ff0219169055600182016000610f4e9190610fb0565b600282016000610f5e9190610fb0565b60038201600090556004820160006101000a81549061ffff021916905550600801610f21565b5090565b90565b610fad91905b80821115610fa9576000816000905550600101610f91565b5090565b90565b50805460018160011615610100020316600290046000825580601f10610fd65750610ff5565b601f016020900490600052602060002090810190610ff49190610f8b565b5b505600a165627a7a723058207cff2d89aec79d35d5386b8e8d584571d3b4e2f4f6e46642fb8c9367cc7fb09e0029",
  "source": "pragma solidity ^0.4.18;\r\n\r\n// not needed yet.\r\n//import \"./zeppelin-solidity/contracts/token/ERC721/ERC721.sol\";\r\nimport \"./Ownable.sol\";\r\nimport \"./SafeMath.sol\";\r\nimport \"./iterable_mapping.sol\";\r\n\r\n\r\n/// @title CharacterFactory\r\n/// @author LD2045\r\n/// @dev This contract will be an attempt to make a game like World of Warcraft on Etheruem using the ERC721 standard. \r\n/// @notice CharacterFactory is inheriting from Ownable.sol\r\ncontract CharacterFactory is Ownable {\r\n    /// @notice Declarations using SafeMath. These datatypes will be able to inherit contract.\r\n    using SafeMath for uint256;\r\n    using SafeMath for uint32;\r\n    using SafeMath for uint16;\r\n    using SafeMath for uint8;\r\n\r\n    /// @notice Declarations using iterable_mapping. These datatypes will be able to inherit from contract and allow my mappings to be iterable.\r\n    using IterableMapping for mapping(uint => string);\r\n    using IterableMapping for mapping(address => uint);\r\n\r\n    /// @dev enums are explicitly convertible to and from all integer types but implicit conversion is not allowed.\r\n    enum Armour {Chest, Helm, Boots, Leggings, Gloves, Shield} // 0,1,2,3,4,5\r\n    enum Weapon {Sword, Axe, Wand, Gun, Hammer, Fist} // 0,1,2,3,4,5\r\n\r\n    /// @notice Events.\r\n    event NewCharacter(uint id,\r\n                    string name,\r\n                    string charType,\r\n                    uint dna);\r\n\r\n    /// @notice State variables, stored permanently in the blockchain.\r\n    uint randNonce = 0;\r\n    uint modShortener = 10 ** 16; // can later use the modulus operator % to shorten an integer to 16 digits.\r\n\r\n    struct Statistics {\r\n        uint16 wins;\r\n        uint16 losses;\r\n        uint16 totalHealth;\r\n        uint16 totalMana;\r\n        uint16 strength;\r\n        uint16 intelligence;\r\n        uint16 agility;\r\n        uint16 defense;\r\n        uint16 attackPower;\r\n    }\r\n\r\n    struct Character {\r\n        bool engaged;\r\n        string name;\r\n        string charType;\r\n        uint dna;\r\n        uint16 level;\r\n        mapping (uint => Statistics) stats;\r\n        mapping (uint => Weapon) weapons;\r\n        mapping (uint => Armour) armour;\r\n    }\r\n\r\n    /// @notice An array(vector) of Characters. \r\n    Character[] public characters;\r\n    Statistics[] public characterStatistics;\r\n\r\n    /// @notice Dictionaries.\r\n    mapping (uint => address) public characterToOwner;\r\n    mapping (address => uint) ownerCharacterCount;\r\n\r\n    /// @dev Assures that only the owner of that character can proceed. \r\n    modifier onlyOwnerOf(uint _characterId) {\r\n        require(msg.sender == characterToOwner[_characterId]);\r\n        _;\r\n    }\r\n\r\n    function _createCharacter(string _name, string _charType, uint _dna) internal {\r\n        // characterStatistics.push(CharacterStats(0,0,100,50,10,10,10,10,25)) - 1;\r\n        uint id = characters.push(Character(false, _name, _charType, _dna, 1)) - 1;\r\n\r\n        Character storage char = characters[id];\r\n        char.stats[0] = Statistics(0,0,100,50,10,10,10,10,25);\r\n\r\n        // Assign the character to the address.\r\n        characterToOwner[id] = msg.sender;\r\n        // Inc that addresses total character count.\r\n        ownerCharacterCount[msg.sender] = ownerCharacterCount[msg.sender].add(1);\r\n\r\n        // Trigger event.\r\n        NewCharacter(id, _name, _charType, _dna);\r\n    }\r\n\r\n    /// @notice internal - like private but can also be called by contracts that inherit from this one.\r\n    /// @dev In light that oracles do not exist, this psuedo-rand function will have to do.\r\n    function _generateRandomness(uint _modulus) internal returns (uint) {\r\n        randNonce = randNonce.add(1);\r\n        return uint(keccak256(now, randNonce, msg.sender, uint(1 days))) % _modulus;\r\n    }\r\n\r\n\r\n    function createCharacter(string _name, string _charType) public {\r\n        /// @notice Make sure the owner has at most 3 characters.\r\n        require(ownerCharacterCount[msg.sender] <= 3);\r\n        uint randDna = _generateRandomness(modShortener);\r\n        _createCharacter(_name, _charType, randDna);\r\n    }\r\n\r\n    \r\n\r\n\r\n\r\n\r\n\r\n\r\n\r\n\r\n    /// @notice These functions are for testing on https://remix.ethereum.org.\r\n    function GetCallingAddr() public view returns(address) {\r\n        return msg.sender;\r\n    }\r\n\r\n    /// @notice When calling thsi function, passing in the address in quotes \"_addr\".\r\n    function GetPassedAddr(address _addr) public view returns(address) {\r\n        return _addr;\r\n    }\r\n    \r\n    /// @notice Returns 0x0000000000000000000000000000000000000000 always.\r\n    function GetAddrZero() public view returns(address) {\r\n        return address(0);\r\n    }\r\n}",
  "sourcePath": "C:\\Users\\Luis.Escobar-Driver\\Documents\\SmartContractProjects\\Skeletor\\contracts\\CharacterFactory.sol",
  "compiler": {
    "name": "solc",
    "version": "0.4.19+commit.c4cbbb05.Emscripten.clang"
  },
  "schemaVersion": "2.0.0",
  "updatedAt": "2018-03-21T22:00:53.749Z"
}