{
  "contractName": "Claimable",
  "abi": [
    {
      "constant": true,
      "inputs": [],
      "name": "owner",
      "outputs": [
        {
          "name": "",
          "type": "address"
        }
      ],
      "payable": false,
      "stateMutability": "view",
      "type": "function"
    },
    {
      "constant": true,
      "inputs": [],
      "name": "pendingOwner",
      "outputs": [
        {
          "name": "",
          "type": "address"
        }
      ],
      "payable": false,
      "stateMutability": "view",
      "type": "function"
    },
    {
      "anonymous": false,
      "inputs": [
        {
          "indexed": true,
          "name": "previousOwner",
          "type": "address"
        },
        {
          "indexed": true,
          "name": "newOwner",
          "type": "address"
        }
      ],
      "name": "OwnershipTransferred",
      "type": "event"
    },
    {
      "constant": false,
      "inputs": [
        {
          "name": "newOwner",
          "type": "address"
        }
      ],
      "name": "transferOwnership",
      "outputs": [],
      "payable": false,
      "stateMutability": "nonpayable",
      "type": "function"
    },
    {
      "constant": false,
      "inputs": [],
      "name": "claimOwnership",
      "outputs": [],
      "payable": false,
      "stateMutability": "nonpayable",
      "type": "function"
    }
  ],
  "bytecode": "0x6060604052336000806101000a81548173ffffffffffffffffffffffffffffffffffffffff021916908373ffffffffffffffffffffffffffffffffffffffff160217905550610414806100536000396000f300606060405260043610610062576000357c0100000000000000000000000000000000000000000000000000000000900463ffffffff1680634e71e0c8146100675780638da5cb5b1461007c578063e30c3978146100d1578063f2fde38b14610126575b600080fd5b341561007257600080fd5b61007a61015f565b005b341561008757600080fd5b61008f6102fe565b604051808273ffffffffffffffffffffffffffffffffffffffff1673ffffffffffffffffffffffffffffffffffffffff16815260200191505060405180910390f35b34156100dc57600080fd5b6100e4610323565b604051808273ffffffffffffffffffffffffffffffffffffffff1673ffffffffffffffffffffffffffffffffffffffff16815260200191505060405180910390f35b341561013157600080fd5b61015d600480803573ffffffffffffffffffffffffffffffffffffffff16906020019091905050610349565b005b600160009054906101000a900473ffffffffffffffffffffffffffffffffffffffff1673ffffffffffffffffffffffffffffffffffffffff163373ffffffffffffffffffffffffffffffffffffffff161415156101bb57600080fd5b600160009054906101000a900473ffffffffffffffffffffffffffffffffffffffff1673ffffffffffffffffffffffffffffffffffffffff166000809054906101000a900473ffffffffffffffffffffffffffffffffffffffff1673ffffffffffffffffffffffffffffffffffffffff167f8be0079c531659141344cd1fd0a4f28419497f9722a3daafe3b4186f6b6457e060405160405180910390a3600160009054906101000a900473ffffffffffffffffffffffffffffffffffffffff166000806101000a81548173ffffffffffffffffffffffffffffffffffffffff021916908373ffffffffffffffffffffffffffffffffffffffff1602179055506000600160006101000a81548173ffffffffffffffffffffffffffffffffffffffff021916908373ffffffffffffffffffffffffffffffffffffffff160217905550565b6000809054906101000a900473ffffffffffffffffffffffffffffffffffffffff1681565b600160009054906101000a900473ffffffffffffffffffffffffffffffffffffffff1681565b6000809054906101000a900473ffffffffffffffffffffffffffffffffffffffff1673ffffffffffffffffffffffffffffffffffffffff163373ffffffffffffffffffffffffffffffffffffffff161415156103a457600080fd5b80600160006101000a81548173ffffffffffffffffffffffffffffffffffffffff021916908373ffffffffffffffffffffffffffffffffffffffff160217905550505600a165627a7a72305820faccbe2554b46e788e9b45d7434a32e4a13a907c5b21c4e4b81b2266e1e972f00029",
  "source": "pragma solidity ^0.4.18;\r\n\r\n\r\nimport \"./Ownable.sol\";\r\n\r\n\r\n/**\r\n * @title Claimable\r\n * @dev Extension for the Ownable contract, where the ownership needs to be claimed.\r\n * This allows the new owner to accept the transfer.\r\n */\r\ncontract Claimable is Ownable {\r\n  address public pendingOwner;\r\n\r\n  /**\r\n   * @dev Modifier throws if called by any account other than the pendingOwner.\r\n   */\r\n  modifier onlyPendingOwner() {\r\n    require(msg.sender == pendingOwner);\r\n    _;\r\n  }\r\n\r\n  /**\r\n   * @dev Allows the current owner to set the pendingOwner address.\r\n   * @param newOwner The address to transfer ownership to.\r\n   */\r\n  function transferOwnership(address newOwner) onlyOwner public {\r\n    pendingOwner = newOwner;\r\n  }\r\n\r\n  /**\r\n   * @dev Allows the pendingOwner address to finalize the transfer.\r\n   */\r\n  function claimOwnership() onlyPendingOwner public {\r\n    OwnershipTransferred(owner, pendingOwner);\r\n    owner = pendingOwner;\r\n    pendingOwner = address(0);\r\n  }\r\n}\r\n",
  "sourcePath": "C:\\Users\\Luis.Escobar-Driver\\Documents\\SmartContractProjects\\Skeletor\\contracts\\zeppelin-solidity\\contracts\\ownership\\Claimable.sol",
  "compiler": {
    "name": "solc",
    "version": "0.4.19+commit.c4cbbb05.Emscripten.clang"
  },
  "schemaVersion": "2.0.0",
  "updatedAt": "2018-03-21T19:51:18.293Z"
}