{
  "contractName": "DayLimitMock",
  "abi": [
    {
      "constant": true,
      "inputs": [],
      "name": "dailyLimit",
      "outputs": [
        {
          "name": "",
          "type": "uint256"
        }
      ],
      "payable": false,
      "stateMutability": "view",
      "type": "function"
    },
    {
      "constant": true,
      "inputs": [],
      "name": "totalSpending",
      "outputs": [
        {
          "name": "",
          "type": "uint256"
        }
      ],
      "payable": false,
      "stateMutability": "view",
      "type": "function"
    },
    {
      "constant": true,
      "inputs": [],
      "name": "lastDay",
      "outputs": [
        {
          "name": "",
          "type": "uint256"
        }
      ],
      "payable": false,
      "stateMutability": "view",
      "type": "function"
    },
    {
      "constant": true,
      "inputs": [],
      "name": "spentToday",
      "outputs": [
        {
          "name": "",
          "type": "uint256"
        }
      ],
      "payable": false,
      "stateMutability": "view",
      "type": "function"
    },
    {
      "inputs": [
        {
          "name": "_value",
          "type": "uint256"
        }
      ],
      "payable": false,
      "stateMutability": "nonpayable",
      "type": "constructor"
    },
    {
      "constant": false,
      "inputs": [
        {
          "name": "_value",
          "type": "uint256"
        }
      ],
      "name": "attemptSpend",
      "outputs": [],
      "payable": false,
      "stateMutability": "nonpayable",
      "type": "function"
    },
    {
      "constant": false,
      "inputs": [
        {
          "name": "_newLimit",
          "type": "uint256"
        }
      ],
      "name": "setDailyLimit",
      "outputs": [],
      "payable": false,
      "stateMutability": "nonpayable",
      "type": "function"
    },
    {
      "constant": false,
      "inputs": [],
      "name": "resetSpentToday",
      "outputs": [],
      "payable": false,
      "stateMutability": "nonpayable",
      "type": "function"
    }
  ],
  "bytecode": "0x6060604052341561000f57600080fd5b60405160208061032a83398101604052808051906020019091905050808060008190555061004e61006364010000000002610260176401000000009004565b60028190555050600060038190555050610079565b6000620151804281151561007357fe5b04905090565b6102a2806100886000396000f300606060405260043610610083576000357c0100000000000000000000000000000000000000000000000000000000900463ffffffff1680635c52c2f51461008857806367eeba0c1461009d5780636997bcab146100c65780636b0c932d146100ef578063b20d30a914610118578063b349f6c71461013b578063f059cf2b1461015e575b600080fd5b341561009357600080fd5b61009b610187565b005b34156100a857600080fd5b6100b0610191565b6040518082815260200191505060405180910390f35b34156100d157600080fd5b6100d9610197565b6040518082815260200191505060405180910390f35b34156100fa57600080fd5b61010261019d565b6040518082815260200191505060405180910390f35b341561012357600080fd5b61013960048080359060200190919050506101a3565b005b341561014657600080fd5b61015c60048080359060200190919050506101af565b005b341561016957600080fd5b6101716101d8565b6040518082815260200191505060405180910390f35b61018f6101de565b565b60005481565b60035481565b60025481565b6101ac816101e8565b50565b806101b9816101f2565b15156101c457600080fd5b816003600082825401925050819055505050565b60015481565b6000600181905550565b8060008190555050565b60006002546101ff610260565b111561021c576000600181905550610215610260565b6002819055505b6001548260015401101580156102385750600054826001540111155b1561025657816001600082825401925050819055506001905061025b565b600090505b919050565b6000620151804281151561027057fe5b049050905600a165627a7a72305820f8e14cedfe22dd6f10a43ef878a00cd0a39938e608313265ecf19b4671b61fa30029",
  "source": "pragma solidity ^0.4.18;\r\n\r\nimport \"../../contracts/DayLimit.sol\";\r\n\r\n\r\ncontract DayLimitMock is DayLimit {\r\n  uint256 public totalSpending;\r\n\r\n  function DayLimitMock(uint256 _value) public DayLimit(_value) {\r\n    totalSpending = 0;\r\n  }\r\n\r\n  function attemptSpend(uint256 _value) external limitedDaily(_value) {\r\n    totalSpending += _value;\r\n  }\r\n\r\n  function setDailyLimit(uint256 _newLimit) external {\r\n    _setDailyLimit(_newLimit);\r\n  }\r\n\r\n  function resetSpentToday() external {\r\n    _resetSpentToday();\r\n  }\r\n\r\n}\r\n",
  "sourcePath": "C:\\Users\\Luis.Escobar-Driver\\Documents\\SmartContractProjects\\Skeletor\\contracts\\zeppelin-solidity\\contracts\\mocks\\DayLimitMock.sol",
  "compiler": {
    "name": "solc",
    "version": "0.4.19+commit.c4cbbb05.Emscripten.clang"
  },
  "schemaVersion": "2.0.0",
  "updatedAt": "2018-03-21T19:51:18.252Z"
}