{
  "contractName": "DayLimit",
  "abi": [
    {
      "constant": true,
      "inputs": [],
      "name": "dailyLimit",
      "outputs": [
        {
          "name": "",
          "type": "uint256"
        }
      ],
      "payable": false,
      "stateMutability": "view",
      "type": "function"
    },
    {
      "constant": true,
      "inputs": [],
      "name": "lastDay",
      "outputs": [
        {
          "name": "",
          "type": "uint256"
        }
      ],
      "payable": false,
      "stateMutability": "view",
      "type": "function"
    },
    {
      "constant": true,
      "inputs": [],
      "name": "spentToday",
      "outputs": [
        {
          "name": "",
          "type": "uint256"
        }
      ],
      "payable": false,
      "stateMutability": "view",
      "type": "function"
    },
    {
      "inputs": [
        {
          "name": "_limit",
          "type": "uint256"
        }
      ],
      "payable": false,
      "stateMutability": "nonpayable",
      "type": "constructor"
    }
  ],
  "bytecode": "0x6060604052341561000f57600080fd5b60405160208061019b833981016040528080519060200190919050508060008190555061004d610059640100000000026100dc176401000000009004565b6002819055505061006f565b6000620151804281151561006957fe5b04905090565b61011d8061007e6000396000f3006060604052600436106053576000357c0100000000000000000000000000000000000000000000000000000000900463ffffffff16806367eeba0c1460585780636b0c932d14607e578063f059cf2b1460a4575b600080fd5b3415606257600080fd5b606860ca565b6040518082815260200191505060405180910390f35b3415608857600080fd5b608e60d0565b6040518082815260200191505060405180910390f35b341560ae57600080fd5b60b460d6565b6040518082815260200191505060405180910390f35b60005481565b60025481565b60015481565b6000620151804281151560eb57fe5b049050905600a165627a7a72305820fc61b622a9d76cd43fb013e1e148c5e05a3f7e9443160f706ab1516c9df731060029",
  "source": "pragma solidity ^0.4.18;\r\n\r\n\r\n/**\r\n * @title DayLimit\r\n * @dev Base contract that enables methods to be protected by placing a linear limit (specifiable)\r\n * on a particular resource per calendar day. Is multiowned to allow the limit to be altered.\r\n */\r\ncontract DayLimit {\r\n\r\n  uint256 public dailyLimit;\r\n  uint256 public spentToday;\r\n  uint256 public lastDay;\r\n\r\n  /**\r\n   * @dev Constructor that sets the passed value as a dailyLimit.\r\n   * @param _limit uint256 to represent the daily limit.\r\n   */\r\n  function DayLimit(uint256 _limit) public {\r\n    dailyLimit = _limit;\r\n    lastDay = today();\r\n  }\r\n\r\n  /**\r\n   * @dev sets the daily limit. Does not alter the amount already spent today.\r\n   * @param _newLimit uint256 to represent the new limit.\r\n   */\r\n  function _setDailyLimit(uint256 _newLimit) internal {\r\n    dailyLimit = _newLimit;\r\n  }\r\n\r\n  /**\r\n   * @dev Resets the amount already spent today.\r\n   */\r\n  function _resetSpentToday() internal {\r\n    spentToday = 0;\r\n  }\r\n\r\n  /**\r\n   * @dev Checks to see if there is enough resource to spend today. If true, the resource may be expended.\r\n   * @param _value uint256 representing the amount of resource to spend.\r\n   * @return A boolean that is True if the resource was spent and false otherwise.\r\n   */\r\n  function underLimit(uint256 _value) internal returns (bool) {\r\n    // reset the spend limit if we're on a different day to last time.\r\n    if (today() > lastDay) {\r\n      spentToday = 0;\r\n      lastDay = today();\r\n    }\r\n    // check to see if there's enough left - if so, subtract and return true.\r\n    // overflow protection                    // dailyLimit check\r\n    if (spentToday + _value >= spentToday && spentToday + _value <= dailyLimit) {\r\n      spentToday += _value;\r\n      return true;\r\n    }\r\n    return false;\r\n  }\r\n\r\n  /**\r\n   * @dev Private function to determine today's index\r\n   * @return uint256 of today's index.\r\n   */\r\n  function today() private view returns (uint256) {\r\n    return now / 1 days;\r\n  }\r\n\r\n  /**\r\n   * @dev Simple modifier for daily limit.\r\n   */\r\n  modifier limitedDaily(uint256 _value) {\r\n    require(underLimit(_value));\r\n    _;\r\n  }\r\n}\r\n",
  "sourcePath": "C:\\Users\\Luis.Escobar-Driver\\Documents\\SmartContractProjects\\Skeletor\\contracts\\zeppelin-solidity\\contracts\\DayLimit.sol",
  "compiler": {
    "name": "solc",
    "version": "0.4.19+commit.c4cbbb05.Emscripten.clang"
  },
  "schemaVersion": "2.0.0",
  "updatedAt": "2018-03-21T19:51:18.229Z"
}