{
  "contractName": "ECRecoveryMock",
  "abi": [
    {
      "constant": true,
      "inputs": [],
      "name": "addrRecovered",
      "outputs": [
        {
          "name": "",
          "type": "address"
        }
      ],
      "payable": false,
      "stateMutability": "view",
      "type": "function"
    },
    {
      "constant": false,
      "inputs": [
        {
          "name": "hash",
          "type": "bytes32"
        },
        {
          "name": "sig",
          "type": "bytes"
        }
      ],
      "name": "recover",
      "outputs": [
        {
          "name": "",
          "type": "address"
        }
      ],
      "payable": false,
      "stateMutability": "nonpayable",
      "type": "function"
    }
  ],
  "bytecode": "0x6060604052341561000f57600080fd5b6102f18061001e6000396000f30060606040526004361061004c576000357c0100000000000000000000000000000000000000000000000000000000900463ffffffff16806319045a251461005157806375f2566e146100fb575b600080fd5b341561005c57600080fd5b6100b960048080356000191690602001909190803590602001908201803590602001908080601f01602080910402602001604051908101604052809392919081815260200183838082843782019150505050505091905050610150565b604051808273ffffffffffffffffffffffffffffffffffffffff1673ffffffffffffffffffffffffffffffffffffffff16815260200191505060405180910390f35b341561010657600080fd5b61010e6102a0565b604051808273ffffffffffffffffffffffffffffffffffffffff1673ffffffffffffffffffffffffffffffffffffffff16815260200191505060405180910390f35b6000826000191673__ECRecovery____________________________6319045a259091846000604051602001526040518363ffffffff167c010000000000000000000000000000000000000000000000000000000002815260040180836000191660001916815260200180602001828103825283818151815260200191508051906020019080838360005b838110156101f65780820151818401526020810190506101db565b50505050905090810190601f1680156102235780820380516001836020036101000a031916815260200191505b50935050505060206040518083038186803b151561024057600080fd5b6102c65a03f4151561025157600080fd5b505050604051805190506000806101000a81548173ffffffffffffffffffffffffffffffffffffffff021916908373ffffffffffffffffffffffffffffffffffffffff16021790555092915050565b6000809054906101000a900473ffffffffffffffffffffffffffffffffffffffff16815600a165627a7a723058208e49302406430c96b39912b2235bf35571a1464c60f12a03c46b8844599a5fc20029",
  "source": "pragma solidity ^0.4.18;\r\n\r\n\r\nimport \"../ECRecovery.sol\";\r\n\r\n\r\ncontract ECRecoveryMock {\r\n  using ECRecovery for bytes32;\r\n\r\n  address public addrRecovered;\r\n\r\n  function recover(bytes32 hash, bytes sig) public returns (address) {\r\n    addrRecovered = hash.recover(sig);\r\n  }\r\n\r\n}\r\n",
  "sourcePath": "C:\\Users\\Luis.Escobar-Driver\\Documents\\SmartContractProjects\\Skeletor\\contracts\\zeppelin-solidity\\contracts\\mocks\\ECRecoveryMock.sol",
  "compiler": {
    "name": "solc",
    "version": "0.4.19+commit.c4cbbb05.Emscripten.clang"
  },
  "schemaVersion": "2.0.0",
  "updatedAt": "2018-03-21T19:51:18.253Z"
}