{
  "contractName": "ERC721TokenMock",
  "abi": [
    {
      "constant": false,
      "inputs": [
        {
          "name": "_to",
          "type": "address"
        },
        {
          "name": "_tokenId",
          "type": "uint256"
        }
      ],
      "name": "approve",
      "outputs": [],
      "payable": false,
      "stateMutability": "nonpayable",
      "type": "function"
    },
    {
      "constant": true,
      "inputs": [],
      "name": "totalSupply",
      "outputs": [
        {
          "name": "",
          "type": "uint256"
        }
      ],
      "payable": false,
      "stateMutability": "view",
      "type": "function"
    },
    {
      "constant": true,
      "inputs": [
        {
          "name": "_tokenId",
          "type": "uint256"
        }
      ],
      "name": "approvedFor",
      "outputs": [
        {
          "name": "",
          "type": "address"
        }
      ],
      "payable": false,
      "stateMutability": "view",
      "type": "function"
    },
    {
      "constant": true,
      "inputs": [
        {
          "name": "_owner",
          "type": "address"
        }
      ],
      "name": "tokensOf",
      "outputs": [
        {
          "name": "",
          "type": "uint256[]"
        }
      ],
      "payable": false,
      "stateMutability": "view",
      "type": "function"
    },
    {
      "constant": true,
      "inputs": [
        {
          "name": "_tokenId",
          "type": "uint256"
        }
      ],
      "name": "ownerOf",
      "outputs": [
        {
          "name": "",
          "type": "address"
        }
      ],
      "payable": false,
      "stateMutability": "view",
      "type": "function"
    },
    {
      "constant": true,
      "inputs": [
        {
          "name": "_owner",
          "type": "address"
        }
      ],
      "name": "balanceOf",
      "outputs": [
        {
          "name": "",
          "type": "uint256"
        }
      ],
      "payable": false,
      "stateMutability": "view",
      "type": "function"
    },
    {
      "constant": false,
      "inputs": [
        {
          "name": "_to",
          "type": "address"
        },
        {
          "name": "_tokenId",
          "type": "uint256"
        }
      ],
      "name": "transfer",
      "outputs": [],
      "payable": false,
      "stateMutability": "nonpayable",
      "type": "function"
    },
    {
      "constant": false,
      "inputs": [
        {
          "name": "_tokenId",
          "type": "uint256"
        }
      ],
      "name": "takeOwnership",
      "outputs": [],
      "payable": false,
      "stateMutability": "nonpayable",
      "type": "function"
    },
    {
      "inputs": [],
      "payable": false,
      "stateMutability": "nonpayable",
      "type": "constructor"
    },
    {
      "anonymous": false,
      "inputs": [
        {
          "indexed": true,
          "name": "_from",
          "type": "address"
        },
        {
          "indexed": true,
          "name": "_to",
          "type": "address"
        },
        {
          "indexed": false,
          "name": "_tokenId",
          "type": "uint256"
        }
      ],
      "name": "Transfer",
      "type": "event"
    },
    {
      "anonymous": false,
      "inputs": [
        {
          "indexed": true,
          "name": "_owner",
          "type": "address"
        },
        {
          "indexed": true,
          "name": "_approved",
          "type": "address"
        },
        {
          "indexed": false,
          "name": "_tokenId",
          "type": "uint256"
        }
      ],
      "name": "Approval",
      "type": "event"
    },
    {
      "constant": false,
      "inputs": [
        {
          "name": "_to",
          "type": "address"
        },
        {
          "name": "_tokenId",
          "type": "uint256"
        }
      ],
      "name": "mint",
      "outputs": [],
      "payable": false,
      "stateMutability": "nonpayable",
      "type": "function"
    },
    {
      "constant": false,
      "inputs": [
        {
          "name": "_tokenId",
          "type": "uint256"
        }
      ],
      "name": "burn",
      "outputs": [],
      "payable": false,
      "stateMutability": "nonpayable",
      "type": "function"
    }
  ],
  "bytecode": "0x6060604052341561000f57600080fd5b61101f8061001e6000396000f3006060604052600436106100a4576000357c0100000000000000000000000000000000000000000000000000000000900463ffffffff168063095ea7b3146100a957806318160ddd146100eb5780632a6dd48f1461011457806340c10f191461017757806342966c68146101b95780635a3f2672146101dc5780636352211e1461026a57806370a08231146102cd578063a9059cbb1461031a578063b2e6ceeb1461035c575b600080fd5b34156100b457600080fd5b6100e9600480803573ffffffffffffffffffffffffffffffffffffffff1690602001909190803590602001909190505061037f565b005b34156100f657600080fd5b6100fe610512565b6040518082815260200191505060405180910390f35b341561011f57600080fd5b610135600480803590602001909190505061051b565b604051808273ffffffffffffffffffffffffffffffffffffffff1673ffffffffffffffffffffffffffffffffffffffff16815260200191505060405180910390f35b341561018257600080fd5b6101b7600480803573ffffffffffffffffffffffffffffffffffffffff16906020019091908035906020019091905050610558565b005b34156101c457600080fd5b6101da6004808035906020019091905050610566565b005b34156101e757600080fd5b610213600480803573ffffffffffffffffffffffffffffffffffffffff16906020019091905050610572565b6040518080602001828103825283818151815260200191508051906020019060200280838360005b8381101561025657808201518184015260208101905061023b565b505050509050019250505060405180910390f35b341561027557600080fd5b61028b600480803590602001909190505061060f565b604051808273ffffffffffffffffffffffffffffffffffffffff1673ffffffffffffffffffffffffffffffffffffffff16815260200191505060405180910390f35b34156102d857600080fd5b610304600480803573ffffffffffffffffffffffffffffffffffffffff1690602001909190505061068d565b6040518082815260200191505060405180910390f35b341561032557600080fd5b61035a600480803573ffffffffffffffffffffffffffffffffffffffff169060200190919080359060200190919050506106d9565b005b341561036757600080fd5b61037d600480803590602001909190505061072c565b005b6000813373ffffffffffffffffffffffffffffffffffffffff166103a28261060f565b73ffffffffffffffffffffffffffffffffffffffff161415156103c457600080fd5b6103cd8361060f565b91508173ffffffffffffffffffffffffffffffffffffffff168473ffffffffffffffffffffffffffffffffffffffff161415151561040a57600080fd5b60006104158461051b565b73ffffffffffffffffffffffffffffffffffffffff1614158061044f575060008473ffffffffffffffffffffffffffffffffffffffff1614155b1561050c57836002600085815260200190815260200160002060006101000a81548173ffffffffffffffffffffffffffffffffffffffff021916908373ffffffffffffffffffffffffffffffffffffffff1602179055508373ffffffffffffffffffffffffffffffffffffffff168273ffffffffffffffffffffffffffffffffffffffff167f8c5be1e5ebec7d5bd14f71427d1e84f3dd0314c0f7b2291e5b200ac8c7c3b925856040518082815260200191505060405180910390a35b50505050565b60008054905090565b60006002600083815260200190815260200160002060009054906101000a900473ffffffffffffffffffffffffffffffffffffffff169050919050565b6105628282610757565b5050565b61056f816107f1565b50565b61057a610f62565b600360008373ffffffffffffffffffffffffffffffffffffffff1673ffffffffffffffffffffffffffffffffffffffff16815260200190815260200160002080548060200260200160405190810160405280929190818152602001828054801561060357602002820191906000526020600020905b8154815260200190600101908083116105ef575b50505050509050919050565b6000806001600084815260200190815260200160002060009054906101000a900473ffffffffffffffffffffffffffffffffffffffff169050600073ffffffffffffffffffffffffffffffffffffffff168173ffffffffffffffffffffffffffffffffffffffff161415151561068457600080fd5b80915050919050565b6000600360008373ffffffffffffffffffffffffffffffffffffffff1673ffffffffffffffffffffffffffffffffffffffff168152602001908152602001600020805490509050919050565b803373ffffffffffffffffffffffffffffffffffffffff166106fa8261060f565b73ffffffffffffffffffffffffffffffffffffffff1614151561071c57600080fd5b6107273384846108c5565b505050565b6107363382610a0e565b151561074157600080fd5b61075461074d8261060f565b33836108c5565b50565b600073ffffffffffffffffffffffffffffffffffffffff168273ffffffffffffffffffffffffffffffffffffffff161415151561079357600080fd5b61079d8282610a4f565b8173ffffffffffffffffffffffffffffffffffffffff1660007fddf252ad1be2c89b69c2b068fc378daa952ba7f163c4a11628f55a4df523b3ef836040518082815260200191505060405180910390a35050565b803373ffffffffffffffffffffffffffffffffffffffff166108128261060f565b73ffffffffffffffffffffffffffffffffffffffff1614151561083457600080fd5b600061083f8361051b565b73ffffffffffffffffffffffffffffffffffffffff16141515610867576108663383610bba565b5b6108713383610ca3565b60003373ffffffffffffffffffffffffffffffffffffffff167fddf252ad1be2c89b69c2b068fc378daa952ba7f163c4a11628f55a4df523b3ef846040518082815260200191505060405180910390a35050565b600073ffffffffffffffffffffffffffffffffffffffff168273ffffffffffffffffffffffffffffffffffffffff161415151561090157600080fd5b61090a8161060f565b73ffffffffffffffffffffffffffffffffffffffff168273ffffffffffffffffffffffffffffffffffffffff161415151561094457600080fd5b8273ffffffffffffffffffffffffffffffffffffffff166109648261060f565b73ffffffffffffffffffffffffffffffffffffffff1614151561098657600080fd5b6109908382610bba565b61099a8382610ca3565b6109a48282610a4f565b8173ffffffffffffffffffffffffffffffffffffffff168373ffffffffffffffffffffffffffffffffffffffff167fddf252ad1be2c89b69c2b068fc378daa952ba7f163c4a11628f55a4df523b3ef836040518082815260200191505060405180910390a3505050565b60008273ffffffffffffffffffffffffffffffffffffffff16610a308361051b565b73ffffffffffffffffffffffffffffffffffffffff1614905092915050565b60008073ffffffffffffffffffffffffffffffffffffffff166001600084815260200190815260200160002060009054906101000a900473ffffffffffffffffffffffffffffffffffffffff1673ffffffffffffffffffffffffffffffffffffffff16141515610abe57600080fd5b826001600084815260200190815260200160002060006101000a81548173ffffffffffffffffffffffffffffffffffffffff021916908373ffffffffffffffffffffffffffffffffffffffff160217905550610b198361068d565b9050600360008473ffffffffffffffffffffffffffffffffffffffff1673ffffffffffffffffffffffffffffffffffffffff1681526020019081526020016000208054806001018281610b6c9190610f76565b916000526020600020900160008490919091505550806004600084815260200190815260200160002081905550610baf6001600054610f2b90919063ffffffff16565b600081905550505050565b8173ffffffffffffffffffffffffffffffffffffffff16610bda8261060f565b73ffffffffffffffffffffffffffffffffffffffff16141515610bfc57600080fd5b60006002600083815260200190815260200160002060006101000a81548173ffffffffffffffffffffffffffffffffffffffff021916908373ffffffffffffffffffffffffffffffffffffffff16021790555060008273ffffffffffffffffffffffffffffffffffffffff167f8c5be1e5ebec7d5bd14f71427d1e84f3dd0314c0f7b2291e5b200ac8c7c3b925836040518082815260200191505060405180910390a35050565b60008060008473ffffffffffffffffffffffffffffffffffffffff16610cc88561060f565b73ffffffffffffffffffffffffffffffffffffffff16141515610cea57600080fd5b60046000858152602001908152602001600020549250610d1c6001610d0e8761068d565b610f4990919063ffffffff16565b9150600360008673ffffffffffffffffffffffffffffffffffffffff1673ffffffffffffffffffffffffffffffffffffffff16815260200190815260200160002082815481101515610d6a57fe5b906000526020600020900154905060006001600086815260200190815260200160002060006101000a81548173ffffffffffffffffffffffffffffffffffffffff021916908373ffffffffffffffffffffffffffffffffffffffff16021790555080600360008773ffffffffffffffffffffffffffffffffffffffff1673ffffffffffffffffffffffffffffffffffffffff16815260200190815260200160002084815481101515610e1857fe5b9060005260206000209001819055506000600360008773ffffffffffffffffffffffffffffffffffffffff1673ffffffffffffffffffffffffffffffffffffffff16815260200190815260200160002083815481101515610e7557fe5b906000526020600020900181905550600360008673ffffffffffffffffffffffffffffffffffffffff1673ffffffffffffffffffffffffffffffffffffffff168152602001908152602001600020805480919060019003610ed69190610fa2565b5060006004600086815260200190815260200160002081905550826004600083815260200190815260200160002081905550610f1e6001600054610f4990919063ffffffff16565b6000819055505050505050565b6000808284019050838110151515610f3f57fe5b8091505092915050565b6000828211151515610f5757fe5b818303905092915050565b602060405190810160405280600081525090565b815481835581811511610f9d57818360005260206000209182019101610f9c9190610fce565b5b505050565b815481835581811511610fc957818360005260206000209182019101610fc89190610fce565b5b505050565b610ff091905b80821115610fec576000816000905550600101610fd4565b5090565b905600a165627a7a7230582049b8f9bc858d333ba66589a6e82ab1c758752e9c34e551b91ee396f8850ce0c80029",
  "source": "pragma solidity ^0.4.18;\r\n\r\nimport \"../token/ERC721/ERC721Token.sol\";\r\n\r\n/**\r\n * @title ERC721TokenMock\r\n * This mock just provides a public mint and burn functions for testing purposes.\r\n */\r\ncontract ERC721TokenMock is ERC721Token {\r\n  function ERC721TokenMock() ERC721Token() public { }\r\n\r\n  function mint(address _to, uint256 _tokenId) public {\r\n    super._mint(_to, _tokenId);\r\n  }\r\n\r\n  function burn(uint256 _tokenId) public {\r\n    super._burn(_tokenId);\r\n  }\r\n}\r\n",
  "sourcePath": "C:\\Users\\Luis.Escobar-Driver\\Documents\\SmartContractProjects\\Skeletor\\contracts\\zeppelin-solidity\\contracts\\mocks\\ERC721TokenMock.sol",
  "compiler": {
    "name": "solc",
    "version": "0.4.19+commit.c4cbbb05.Emscripten.clang"
  },
  "schemaVersion": "2.0.0",
  "updatedAt": "2018-03-21T19:51:18.255Z"
}