{
  "contractName": "ForceEther",
  "abi": [
    {
      "constant": false,
      "inputs": [
        {
          "name": "_recipient",
          "type": "address"
        }
      ],
      "name": "destroyAndSend",
      "outputs": [],
      "payable": false,
      "stateMutability": "nonpayable",
      "type": "function"
    },
    {
      "inputs": [],
      "payable": true,
      "stateMutability": "payable",
      "type": "constructor"
    }
  ],
  "bytecode": "0x606060405260bf806100126000396000f300606060405260043610603f576000357c0100000000000000000000000000000000000000000000000000000000900463ffffffff168063f5074f41146044575b600080fd5b3415604e57600080fd5b6078600480803573ffffffffffffffffffffffffffffffffffffffff16906020019091905050607a565b005b8073ffffffffffffffffffffffffffffffffffffffff16ff00a165627a7a72305820ff7de76a9febf33390cc0ead10c9ea0553a175ceaaa241049916c0ccdcd8b4160029",
  "source": "pragma solidity ^0.4.18;\n\n\n// @title Force Ether into a contract.\n// @notice  even\n// if the contract is not payable.\n// @notice To use, construct the contract with the target as argument.\n// @author Remco Bloemen <remco@neufund.org>\ncontract ForceEther {\n\n  function ForceEther() public payable { }\n\n  function destroyAndSend(address _recipient) public {\n    selfdestruct(_recipient);\n  }\n}\n",
  "sourcePath": "/home/ancientevil/SmartContractProjects/SmartContractProjects/Skeletor/contracts/zeppelin-solidity/contracts/mocks/ForceEther.sol",
  "compiler": {
    "name": "solc",
    "version": "0.4.18+commit.9cf6e910.Emscripten.clang"
  },
  "schemaVersion": "1.0.1",
  "updatedAt": "2018-03-18T19:19:14.555Z"
}