{
  "contractName": "ForceEther",
  "abi": [
    {
      "inputs": [],
      "payable": true,
      "stateMutability": "payable",
      "type": "constructor"
    },
    {
      "constant": false,
      "inputs": [
        {
          "name": "_recipient",
          "type": "address"
        }
      ],
      "name": "destroyAndSend",
      "outputs": [],
      "payable": false,
      "stateMutability": "nonpayable",
      "type": "function"
    }
  ],
  "bytecode": "0x606060405260bf806100126000396000f300606060405260043610603f576000357c0100000000000000000000000000000000000000000000000000000000900463ffffffff168063f5074f41146044575b600080fd5b3415604e57600080fd5b6078600480803573ffffffffffffffffffffffffffffffffffffffff16906020019091905050607a565b005b8073ffffffffffffffffffffffffffffffffffffffff16ff00a165627a7a72305820316290490b71cc177e71576db5b2b87489646728bf75fa901ac5bf9119f7b99d0029",
  "source": "pragma solidity ^0.4.18;\r\n\r\n\r\n// @title Force Ether into a contract.\r\n// @notice  even\r\n// if the contract is not payable.\r\n// @notice To use, construct the contract with the target as argument.\r\n// @author Remco Bloemen <remco@neufund.org>\r\ncontract ForceEther {\r\n\r\n  function ForceEther() public payable { }\r\n\r\n  function destroyAndSend(address _recipient) public {\r\n    selfdestruct(_recipient);\r\n  }\r\n}\r\n",
  "sourcePath": "C:\\Users\\Luis.Escobar-Driver\\Documents\\SmartContractProjects\\Skeletor\\contracts\\zeppelin-solidity\\contracts\\mocks\\ForceEther.sol",
  "compiler": {
    "name": "solc",
    "version": "0.4.19+commit.c4cbbb05.Emscripten.clang"
  },
  "schemaVersion": "2.0.0",
  "updatedAt": "2018-03-21T19:51:18.275Z"
}