{
  "contractName": "LimitBalance",
  "abi": [
    {
      "constant": true,
      "inputs": [],
      "name": "limit",
      "outputs": [
        {
          "name": "",
          "type": "uint256"
        }
      ],
      "payable": false,
      "stateMutability": "view",
      "type": "function"
    },
    {
      "inputs": [
        {
          "name": "_limit",
          "type": "uint256"
        }
      ],
      "payable": false,
      "stateMutability": "nonpayable",
      "type": "constructor"
    }
  ],
  "bytecode": "0x6060604052341561000f57600080fd5b6040516020806100dd833981016040528080519060200190919050508060008190555050609c806100416000396000f300606060405260043610603f576000357c0100000000000000000000000000000000000000000000000000000000900463ffffffff168063a4d66daf146044575b600080fd5b3415604e57600080fd5b6054606a565b6040518082815260200191505060405180910390f35b600054815600a165627a7a7230582025dc5be83e848d5e06c696517712d14dff794e9a4cd9279ccb0b607c1f6106e50029",
  "source": "pragma solidity ^0.4.18;\r\n\r\n\r\n/**\r\n * @title LimitBalance\r\n * @dev Simple contract to limit the balance of child contract.\r\n * @dev Note this doesn't prevent other contracts to send funds by using selfdestruct(address);\r\n * @dev See: https://github.com/ConsenSys/smart-contract-best-practices#remember-that-ether-can-be-forcibly-sent-to-an-account\r\n */\r\ncontract LimitBalance {\r\n\r\n  uint256 public limit;\r\n\r\n  /**\r\n   * @dev Constructor that sets the passed value as a limit.\r\n   * @param _limit uint256 to represent the limit.\r\n   */\r\n  function LimitBalance(uint256 _limit) public {\r\n    limit = _limit;\r\n  }\r\n\r\n  /**\r\n   * @dev Checks if limit was reached. Case true, it throws.\r\n   */\r\n  modifier limitedPayable() {\r\n    require(this.balance <= limit);\r\n    _;\r\n\r\n  }\r\n\r\n}\r\n",
  "sourcePath": "C:\\Users\\Luis.Escobar-Driver\\Documents\\SmartContractProjects\\Skeletor\\contracts\\zeppelin-solidity\\contracts\\LimitBalance.sol",
  "compiler": {
    "name": "solc",
    "version": "0.4.19+commit.c4cbbb05.Emscripten.clang"
  },
  "schemaVersion": "2.0.0",
  "updatedAt": "2018-03-21T19:51:18.231Z"
}