{
  "contractName": "LimitBalanceMock",
  "abi": [
    {
      "constant": true,
      "inputs": [],
      "name": "limit",
      "outputs": [
        {
          "name": "",
          "type": "uint256"
        }
      ],
      "payable": false,
      "stateMutability": "view",
      "type": "function"
    },
    {
      "constant": false,
      "inputs": [],
      "name": "limitedDeposit",
      "outputs": [],
      "payable": true,
      "stateMutability": "payable",
      "type": "function"
    }
  ],
  "bytecode": "0x60606040526103e8806000819055505060d78061001d6000396000f3006060604052600436106049576000357c0100000000000000000000000000000000000000000000000000000000900463ffffffff16806386f3d0cd14604e578063a4d66daf146056575b600080fd5b6054607c565b005b3415606057600080fd5b606660a5565b6040518082815260200191505060405180910390f35b6000543073ffffffffffffffffffffffffffffffffffffffff16311115151560a357600080fd5b565b600054815600a165627a7a7230582032a8e80a1bf0a96c870ab130a87e4702277256d80474ae1b73e5c4e615dd864c0029",
  "source": "pragma solidity ^0.4.18;\r\n\r\n\r\nimport \"../LimitBalance.sol\";\r\n\r\n\r\n// mock class using LimitBalance\r\ncontract LimitBalanceMock is LimitBalance(1000) {\r\n\r\n  function limitedDeposit() public payable limitedPayable {\r\n  }\r\n\r\n}\r\n",
  "sourcePath": "C:\\Users\\Luis.Escobar-Driver\\Documents\\SmartContractProjects\\Skeletor\\contracts\\zeppelin-solidity\\contracts\\mocks\\LimitBalanceMock.sol",
  "compiler": {
    "name": "solc",
    "version": "0.4.19+commit.c4cbbb05.Emscripten.clang"
  },
  "schemaVersion": "2.0.0",
  "updatedAt": "2018-03-21T19:51:18.278Z"
}