{
  "contractName": "LimitBalanceMock",
  "abi": [
    {
      "constant": false,
      "inputs": [],
      "name": "limitedDeposit",
      "outputs": [],
      "payable": true,
      "stateMutability": "payable",
      "type": "function"
    },
    {
      "constant": true,
      "inputs": [],
      "name": "limit",
      "outputs": [
        {
          "name": "",
          "type": "uint256"
        }
      ],
      "payable": false,
      "stateMutability": "view",
      "type": "function"
    }
  ],
  "bytecode": "0x60606040526103e8806000819055505060d78061001d6000396000f3006060604052600436106049576000357c0100000000000000000000000000000000000000000000000000000000900463ffffffff16806386f3d0cd14604e578063a4d66daf146056575b600080fd5b6054607c565b005b3415606057600080fd5b606660a5565b6040518082815260200191505060405180910390f35b6000543073ffffffffffffffffffffffffffffffffffffffff16311115151560a357600080fd5b565b600054815600a165627a7a7230582066ff6b03e026127bf499b9da48fecea501c595d0dcbe87094d2debfe9ae0aaa80029",
  "source": "pragma solidity ^0.4.18;\n\n\nimport \"../LimitBalance.sol\";\n\n\n// mock class using LimitBalance\ncontract LimitBalanceMock is LimitBalance(1000) {\n\n  function limitedDeposit() public payable limitedPayable {\n  }\n\n}\n",
  "sourcePath": "/home/ancientevil/SmartContractProjects/SmartContractProjects/Skeletor/contracts/zeppelin-solidity/contracts/mocks/LimitBalanceMock.sol",
  "compiler": {
    "name": "solc",
    "version": "0.4.18+commit.9cf6e910.Emscripten.clang"
  },
  "schemaVersion": "1.0.1",
  "updatedAt": "2018-03-18T19:19:14.556Z"
}