{
  "contractName": "MathMock",
  "abi": [
    {
      "constant": true,
      "inputs": [],
      "name": "result",
      "outputs": [
        {
          "name": "",
          "type": "uint64"
        }
      ],
      "payable": false,
      "stateMutability": "view",
      "type": "function"
    },
    {
      "constant": false,
      "inputs": [
        {
          "name": "a",
          "type": "uint64"
        },
        {
          "name": "b",
          "type": "uint64"
        }
      ],
      "name": "max64",
      "outputs": [],
      "payable": false,
      "stateMutability": "nonpayable",
      "type": "function"
    },
    {
      "constant": false,
      "inputs": [
        {
          "name": "a",
          "type": "uint64"
        },
        {
          "name": "b",
          "type": "uint64"
        }
      ],
      "name": "min64",
      "outputs": [],
      "payable": false,
      "stateMutability": "nonpayable",
      "type": "function"
    }
  ],
  "bytecode": "0x6060604052341561000f57600080fd5b6102238061001e6000396000f300606060405260043610610057576000357c0100000000000000000000000000000000000000000000000000000000900463ffffffff16806336b1315c1461005c5780633a4faf7f1461009c57806365372147146100dc575b600080fd5b341561006757600080fd5b61009a600480803567ffffffffffffffff1690602001909190803567ffffffffffffffff16906020019091905050610119565b005b34156100a757600080fd5b6100da600480803567ffffffffffffffff1690602001909190803567ffffffffffffffff1690602001909190505061014e565b005b34156100e757600080fd5b6100ef610183565b604051808267ffffffffffffffff1667ffffffffffffffff16815260200191505060405180910390f35b610123828261019c565b6000806101000a81548167ffffffffffffffff021916908367ffffffffffffffff1602179055505050565b61015882826101c9565b6000806101000a81548167ffffffffffffffff021916908367ffffffffffffffff1602179055505050565b6000809054906101000a900467ffffffffffffffff1681565b60008167ffffffffffffffff168367ffffffffffffffff16106101bf57816101c1565b825b905092915050565b60008167ffffffffffffffff168367ffffffffffffffff1610156101ed57816101ef565b825b9050929150505600a165627a7a72305820aebd35ae60da6be5edcaa629f6648ca0e613754ee2af5b28d9c8165bf00209410029",
  "source": "pragma solidity ^0.4.18;\r\n\r\n\r\nimport \"../../contracts/math/Math.sol\";\r\n\r\n\r\ncontract MathMock {\r\n  uint64 public result;\r\n\r\n  function max64(uint64 a, uint64 b) public {\r\n    result = Math.max64(a, b);\r\n  }\r\n\r\n  function min64(uint64 a, uint64 b) public {\r\n    result = Math.min64(a, b);\r\n  }\r\n}\r\n",
  "sourcePath": "C:\\Users\\Luis.Escobar-Driver\\Documents\\SmartContractProjects\\Skeletor\\contracts\\zeppelin-solidity\\test\\mocks\\MathMock.sol",
  "compiler": {
    "name": "solc",
    "version": "0.4.19+commit.c4cbbb05.Emscripten.clang"
  },
  "schemaVersion": "2.0.0",
  "updatedAt": "2018-03-21T19:51:18.328Z"
}