{
  "contractName": "MerkleProof",
  "abi": [
    {
      "constant": true,
      "inputs": [
        {
          "name": "_proof",
          "type": "bytes"
        },
        {
          "name": "_root",
          "type": "bytes32"
        },
        {
          "name": "_leaf",
          "type": "bytes32"
        }
      ],
      "name": "verifyProof",
      "outputs": [
        {
          "name": "",
          "type": "bool"
        }
      ],
      "payable": false,
      "stateMutability": "pure",
      "type": "function"
    }
  ],
  "bytecode": "0x6060604052341561000f57600080fd5b6101cd8061001e6000396000f300606060405260043610610041576000357c0100000000000000000000000000000000000000000000000000000000900463ffffffff168063101f13e214610046575b600080fd5b6100b0600480803590602001908201803590602001908080601f0160208091040260200160405190810160405280939291908181526020018383808284378201915050505050509190803560001916906020019091908035600019169060200190919050506100ca565b604051808215151515815260200191505060405180910390f35b6000806000806000602088518115156100df57fe5b061415156100f05760009350610197565b849150602090505b8651811115156101895780870151925082600019168260001916101561014d5781836040518083600019166000191681526020018260001916600019168152602001925050506040518091039020915061017e565b8282604051808360001916600019168152602001826000191660001916815260200192505050604051809103902091505b6020810190506100f8565b856000191682600019161493505b50505093925050505600a165627a7a72305820d58d352e71e16a6b5f6554184155432303e000f7c19248681edf59cb28fa23920029",
  "source": "pragma solidity ^0.4.18;\r\n\r\n\r\n/*\r\n * @title MerkleProof\r\n * @dev Merkle proof verification\r\n * @note Based on https://github.com/ameensol/merkle-tree-solidity/blob/master/src/MerkleProof.sol\r\n */\r\nlibrary MerkleProof {\r\n  /*\r\n   * @dev Verifies a Merkle proof proving the existence of a leaf in a Merkle tree. Assumes that each pair of leaves\r\n   * and each pair of pre-images is sorted.\r\n   * @param _proof Merkle proof containing sibling hashes on the branch from the leaf to the root of the Merkle tree\r\n   * @param _root Merkle root\r\n   * @param _leaf Leaf of Merkle tree\r\n   */\r\n  function verifyProof(bytes _proof, bytes32 _root, bytes32 _leaf) public pure returns (bool) {\r\n    // Check if proof length is a multiple of 32\r\n    if (_proof.length % 32 != 0) {\r\n      return false;\r\n    }\r\n\r\n    bytes32 proofElement;\r\n    bytes32 computedHash = _leaf;\r\n\r\n    for (uint256 i = 32; i <= _proof.length; i += 32) {\r\n      assembly {\r\n        // Load the current element of the proof\r\n        proofElement := mload(add(_proof, i))\r\n      }\r\n\r\n      if (computedHash < proofElement) {\r\n        // Hash(current computed hash + current element of the proof)\r\n        computedHash = keccak256(computedHash, proofElement);\r\n      } else {\r\n        // Hash(current element of the proof + current computed hash)\r\n        computedHash = keccak256(proofElement, computedHash);\r\n      }\r\n    }\r\n\r\n    // Check if the computed hash (root) is equal to the provided root\r\n    return computedHash == _root;\r\n  }\r\n}\r\n",
  "sourcePath": "C:\\Users\\Luis.Escobar-Driver\\Documents\\SmartContractProjects\\Skeletor\\contracts\\zeppelin-solidity\\contracts\\MerkleProof.sol",
  "compiler": {
    "name": "solc",
    "version": "0.4.19+commit.c4cbbb05.Emscripten.clang"
  },
  "schemaVersion": "2.0.0",
  "updatedAt": "2018-03-21T19:51:18.230Z"
}