{
  "contractName": "MessageHelper",
  "abi": [
    {
      "anonymous": false,
      "inputs": [
        {
          "indexed": false,
          "name": "b32",
          "type": "bytes32"
        },
        {
          "indexed": false,
          "name": "number",
          "type": "uint256"
        },
        {
          "indexed": false,
          "name": "text",
          "type": "string"
        }
      ],
      "name": "Show",
      "type": "event"
    },
    {
      "constant": false,
      "inputs": [
        {
          "name": "message",
          "type": "bytes32"
        },
        {
          "name": "number",
          "type": "uint256"
        },
        {
          "name": "text",
          "type": "string"
        }
      ],
      "name": "showMessage",
      "outputs": [
        {
          "name": "",
          "type": "bool"
        }
      ],
      "payable": false,
      "stateMutability": "nonpayable",
      "type": "function"
    },
    {
      "constant": false,
      "inputs": [],
      "name": "fail",
      "outputs": [],
      "payable": false,
      "stateMutability": "nonpayable",
      "type": "function"
    },
    {
      "constant": false,
      "inputs": [
        {
          "name": "to",
          "type": "address"
        },
        {
          "name": "data",
          "type": "bytes"
        }
      ],
      "name": "call",
      "outputs": [
        {
          "name": "",
          "type": "bool"
        }
      ],
      "payable": false,
      "stateMutability": "nonpayable",
      "type": "function"
    }
  ],
  "bytecode": "0x6060604052341561000f57600080fd5b6103328061001e6000396000f300606060405260043610610057576000357c0100000000000000000000000000000000000000000000000000000000900463ffffffff1680631b8b921d1461005c5780636e2e2e4d146100f0578063a9cc47181461017b575b600080fd5b341561006757600080fd5b6100d6600480803573ffffffffffffffffffffffffffffffffffffffff1690602001909190803590602001908201803590602001908080601f01602080910402602001604051908101604052809392919081815260200183838082843782019150505050505091905050610190565b604051808215151515815260200191505060405180910390f35b34156100fb57600080fd5b61016160048080356000191690602001909190803590602001909190803590602001908201803590602001908080601f01602080910402602001604051908101604052809392919081815260200183838082843782019150505050505091905050610236565b604051808215151515815260200191505060405180910390f35b341561018657600080fd5b61018e6102f7565b005b60008273ffffffffffffffffffffffffffffffffffffffff168260405180828051906020019080838360005b838110156101d75780820151818401526020810190506101bc565b50505050905090810190601f1680156102045780820380516001836020036101000a031916815260200191505b5091505060006040518083038160008661646e5a03f19150501561022b5760019050610230565b600090505b92915050565b60007f53f52bd5d580b08520e25370d30be415b61c6ff8e378023685ca03eec817b10f84848460405180846000191660001916815260200183815260200180602001828103825283818151815260200191508051906020019080838360005b838110156102b0578082015181840152602081019050610295565b50505050905090810190601f1680156102dd5780820380516001836020036101000a031916815260200191505b5094505050505060405180910390a1600190509392505050565b6000151561030457600080fd5b5600a165627a7a72305820c969761f06e0a8d9b88372cdc4960d977ef0fd773423a7d4720929c6d6538ab40029",
  "source": "pragma solidity ^0.4.11;\r\n\r\ncontract MessageHelper {\r\n\r\n  event Show(bytes32 b32, uint256 number, string text);\r\n\r\n  function showMessage( bytes32 message, uint256 number, string text ) public returns (bool) {\r\n    Show(message, number, text);\r\n    return true;\r\n  }\r\n\r\n  function fail() public {\r\n    require(false);\r\n  }\r\n\r\n  function call(address to, bytes data) public returns (bool) {\r\n    if (to.call(data))\r\n      return true;\r\n    else\r\n      return false;\r\n  }\r\n\r\n}\r\n",
  "sourcePath": "C:\\Users\\Luis.Escobar-Driver\\Documents\\SmartContractProjects\\Skeletor\\contracts\\zeppelin-solidity\\contracts\\mocks\\MessageHelper.sol",
  "compiler": {
    "name": "solc",
    "version": "0.4.19+commit.c4cbbb05.Emscripten.clang"
  },
  "schemaVersion": "2.0.0",
  "updatedAt": "2018-03-21T19:51:18.278Z"
}