{
  "contractName": "PostDeliveryCrowdsaleImpl",
  "abi": [
    {
      "constant": true,
      "inputs": [],
      "name": "hasClosed",
      "outputs": [
        {
          "name": "",
          "type": "bool"
        }
      ],
      "payable": false,
      "stateMutability": "view",
      "type": "function"
    },
    {
      "constant": true,
      "inputs": [
        {
          "name": "",
          "type": "address"
        }
      ],
      "name": "balances",
      "outputs": [
        {
          "name": "",
          "type": "uint256"
        }
      ],
      "payable": false,
      "stateMutability": "view",
      "type": "function"
    },
    {
      "constant": true,
      "inputs": [],
      "name": "rate",
      "outputs": [
        {
          "name": "",
          "type": "uint256"
        }
      ],
      "payable": false,
      "stateMutability": "view",
      "type": "function"
    },
    {
      "constant": true,
      "inputs": [],
      "name": "weiRaised",
      "outputs": [
        {
          "name": "",
          "type": "uint256"
        }
      ],
      "payable": false,
      "stateMutability": "view",
      "type": "function"
    },
    {
      "constant": true,
      "inputs": [],
      "name": "closingTime",
      "outputs": [
        {
          "name": "",
          "type": "uint256"
        }
      ],
      "payable": false,
      "stateMutability": "view",
      "type": "function"
    },
    {
      "constant": true,
      "inputs": [],
      "name": "wallet",
      "outputs": [
        {
          "name": "",
          "type": "address"
        }
      ],
      "payable": false,
      "stateMutability": "view",
      "type": "function"
    },
    {
      "constant": false,
      "inputs": [],
      "name": "withdrawTokens",
      "outputs": [],
      "payable": false,
      "stateMutability": "nonpayable",
      "type": "function"
    },
    {
      "constant": true,
      "inputs": [],
      "name": "openingTime",
      "outputs": [
        {
          "name": "",
          "type": "uint256"
        }
      ],
      "payable": false,
      "stateMutability": "view",
      "type": "function"
    },
    {
      "constant": false,
      "inputs": [
        {
          "name": "_beneficiary",
          "type": "address"
        }
      ],
      "name": "buyTokens",
      "outputs": [],
      "payable": true,
      "stateMutability": "payable",
      "type": "function"
    },
    {
      "constant": true,
      "inputs": [],
      "name": "token",
      "outputs": [
        {
          "name": "",
          "type": "address"
        }
      ],
      "payable": false,
      "stateMutability": "view",
      "type": "function"
    },
    {
      "inputs": [
        {
          "name": "_openingTime",
          "type": "uint256"
        },
        {
          "name": "_closingTime",
          "type": "uint256"
        },
        {
          "name": "_rate",
          "type": "uint256"
        },
        {
          "name": "_wallet",
          "type": "address"
        },
        {
          "name": "_token",
          "type": "address"
        }
      ],
      "payable": false,
      "stateMutability": "nonpayable",
      "type": "constructor"
    },
    {
      "payable": true,
      "stateMutability": "payable",
      "type": "fallback"
    },
    {
      "anonymous": false,
      "inputs": [
        {
          "indexed": true,
          "name": "purchaser",
          "type": "address"
        },
        {
          "indexed": true,
          "name": "beneficiary",
          "type": "address"
        },
        {
          "indexed": false,
          "name": "value",
          "type": "uint256"
        },
        {
          "indexed": false,
          "name": "amount",
          "type": "uint256"
        }
      ],
      "name": "TokenPurchase",
      "type": "event"
    }
  ],
  "bytecode": "0x6060604052341561000f57600080fd5b60405160a08061098083398101604052808051906020019091908051906020019091908051906020019091908051906020019091908051906020019091905050848484848460008311151561006357600080fd5b600073ffffffffffffffffffffffffffffffffffffffff168273ffffffffffffffffffffffffffffffffffffffff161415151561009f57600080fd5b600073ffffffffffffffffffffffffffffffffffffffff168173ffffffffffffffffffffffffffffffffffffffff16141515156100db57600080fd5b8260028190555081600160006101000a81548173ffffffffffffffffffffffffffffffffffffffff021916908373ffffffffffffffffffffffffffffffffffffffff160217905550806000806101000a81548173ffffffffffffffffffffffffffffffffffffffff021916908373ffffffffffffffffffffffffffffffffffffffff16021790555050505042821015151561017557600080fd5b81811015151561018457600080fd5b8160048190555080600581905550505050505050506107d8806101a86000396000f3006060604052600436106100a4576000357c0100000000000000000000000000000000000000000000000000000000900463ffffffff1680631515bc2b146100af57806327e235e3146100dc5780632c4e722e146101295780634042b66f146101525780634b6753bc1461017b578063521eb273146101a45780638d8f2adb146101f9578063b7a8807c1461020e578063ec8ac4d814610237578063fc0c546a14610265575b6100ad336102ba565b005b34156100ba57600080fd5b6100c2610388565b604051808215151515815260200191505060405180910390f35b34156100e757600080fd5b610113600480803573ffffffffffffffffffffffffffffffffffffffff16906020019091905050610394565b6040518082815260200191505060405180910390f35b341561013457600080fd5b61013c6103ac565b6040518082815260200191505060405180910390f35b341561015d57600080fd5b6101656103b2565b6040518082815260200191505060405180910390f35b341561018657600080fd5b61018e6103b8565b6040518082815260200191505060405180910390f35b34156101af57600080fd5b6101b76103be565b604051808273ffffffffffffffffffffffffffffffffffffffff1673ffffffffffffffffffffffffffffffffffffffff16815260200191505060405180910390f35b341561020457600080fd5b61020c6103e4565b005b341561021957600080fd5b61022161049c565b6040518082815260200191505060405180910390f35b610263600480803573ffffffffffffffffffffffffffffffffffffffff169060200190919050506102ba565b005b341561027057600080fd5b6102786104a2565b604051808273ffffffffffffffffffffffffffffffffffffffff1673ffffffffffffffffffffffffffffffffffffffff16815260200191505060405180910390f35b6000803491506102ca83836104c7565b6102d3826104f4565b90506102ea8260035461051290919063ffffffff16565b6003819055506102fa8382610530565b8273ffffffffffffffffffffffffffffffffffffffff163373ffffffffffffffffffffffffffffffffffffffff167f623b3804fa71d67900d064613da8f94b9617215ee90799290593e1745087ad188484604051808381526020018281526020019250505060405180910390a361037183836105c9565b6103796105cd565b6103838383610631565b505050565b60006005544211905090565b60066020528060005260406000206000915090505481565b60025481565b60035481565b60055481565b600160009054906101000a900473ffffffffffffffffffffffffffffffffffffffff1681565b60006103ee610388565b15156103f957600080fd5b600660003373ffffffffffffffffffffffffffffffffffffffff1673ffffffffffffffffffffffffffffffffffffffff16815260200190815260200160002054905060008111151561044a57600080fd5b6000600660003373ffffffffffffffffffffffffffffffffffffffff1673ffffffffffffffffffffffffffffffffffffffff168152602001908152602001600020819055506104993382610635565b50565b60045481565b6000809054906101000a900473ffffffffffffffffffffffffffffffffffffffff1681565b60045442101580156104db57506005544211155b15156104e657600080fd5b6104f08282610721565b5050565b600061050b6002548361077190919063ffffffff16565b9050919050565b600080828401905083811015151561052657fe5b8091505092915050565b61058281600660008573ffffffffffffffffffffffffffffffffffffffff1673ffffffffffffffffffffffffffffffffffffffff1681526020019081526020016000205461051290919063ffffffff16565b600660008473ffffffffffffffffffffffffffffffffffffffff1673ffffffffffffffffffffffffffffffffffffffff168152602001908152602001600020819055505050565b5050565b600160009054906101000a900473ffffffffffffffffffffffffffffffffffffffff1673ffffffffffffffffffffffffffffffffffffffff166108fc349081150290604051600060405180830381858888f19350505050151561062f57600080fd5b565b5050565b6000809054906101000a900473ffffffffffffffffffffffffffffffffffffffff1673ffffffffffffffffffffffffffffffffffffffff1663a9059cbb83836000604051602001526040518363ffffffff167c0100000000000000000000000000000000000000000000000000000000028152600401808373ffffffffffffffffffffffffffffffffffffffff1673ffffffffffffffffffffffffffffffffffffffff16815260200182815260200192505050602060405180830381600087803b151561070157600080fd5b6102c65a03f1151561071257600080fd5b50505060405180519050505050565b600073ffffffffffffffffffffffffffffffffffffffff168273ffffffffffffffffffffffffffffffffffffffff161415151561075d57600080fd5b6000811415151561076d57600080fd5b5050565b600080600084141561078657600091506107a5565b828402905082848281151561079757fe5b041415156107a157fe5b8091505b50929150505600a165627a7a72305820254134193beea107e3ebaaa996387973cf7a28cf890510065d3d39de86b814230029",
  "source": "pragma solidity ^0.4.18;\r\n\r\nimport \"../token/ERC20/ERC20.sol\";\r\nimport \"../crowdsale/distribution/PostDeliveryCrowdsale.sol\";\r\n\r\n\r\ncontract PostDeliveryCrowdsaleImpl is PostDeliveryCrowdsale {\r\n\r\n  function PostDeliveryCrowdsaleImpl (\r\n    uint256 _openingTime,\r\n    uint256 _closingTime,\r\n    uint256 _rate,\r\n    address _wallet,\r\n    ERC20 _token\r\n  ) \r\n    public\r\n    TimedCrowdsale(_openingTime, _closingTime)\r\n    Crowdsale(_rate, _wallet, _token)\r\n  {\r\n  }\r\n\r\n}\r\n",
  "sourcePath": "C:\\Users\\Luis.Escobar-Driver\\Documents\\SmartContractProjects\\Skeletor\\contracts\\zeppelin-solidity\\contracts\\mocks\\PostDeliveryCrowdsaleImpl.sol",
  "compiler": {
    "name": "solc",
    "version": "0.4.19+commit.c4cbbb05.Emscripten.clang"
  },
  "schemaVersion": "2.0.0",
  "updatedAt": "2018-03-21T19:51:18.280Z"
}