{
  "contractName": "PullPaymentMock",
  "abi": [
    {
      "constant": true,
      "inputs": [],
      "name": "totalPayments",
      "outputs": [
        {
          "name": "",
          "type": "uint256"
        }
      ],
      "payable": false,
      "stateMutability": "view",
      "type": "function"
    },
    {
      "constant": false,
      "inputs": [],
      "name": "withdrawPayments",
      "outputs": [],
      "payable": false,
      "stateMutability": "nonpayable",
      "type": "function"
    },
    {
      "constant": false,
      "inputs": [
        {
          "name": "dest",
          "type": "address"
        },
        {
          "name": "amount",
          "type": "uint256"
        }
      ],
      "name": "callSend",
      "outputs": [],
      "payable": false,
      "stateMutability": "nonpayable",
      "type": "function"
    },
    {
      "constant": true,
      "inputs": [
        {
          "name": "",
          "type": "address"
        }
      ],
      "name": "payments",
      "outputs": [
        {
          "name": "",
          "type": "uint256"
        }
      ],
      "payable": false,
      "stateMutability": "view",
      "type": "function"
    },
    {
      "inputs": [],
      "payable": true,
      "stateMutability": "payable",
      "type": "constructor"
    }
  ],
  "bytecode": "0x6060604052610391806100136000396000f300606060405260043610610061576000357c0100000000000000000000000000000000000000000000000000000000900463ffffffff1680625b4487146100665780636103d70b1461008f578063752c5628146100a4578063e2982c21146100e6575b600080fd5b341561007157600080fd5b610079610133565b6040518082815260200191505060405180910390f35b341561009a57600080fd5b6100a2610139565b005b34156100af57600080fd5b6100e4600480803573ffffffffffffffffffffffffffffffffffffffff16906020019091908035906020019091905050610256565b005b34156100f157600080fd5b61011d600480803573ffffffffffffffffffffffffffffffffffffffff16906020019091905050610264565b6040518082815260200191505060405180910390f35b60015481565b6000803391506000808373ffffffffffffffffffffffffffffffffffffffff1673ffffffffffffffffffffffffffffffffffffffff1681526020019081526020016000205490506000811415151561019057600080fd5b803073ffffffffffffffffffffffffffffffffffffffff1631101515156101b657600080fd5b6101cb8160015461027c90919063ffffffff16565b60018190555060008060008473ffffffffffffffffffffffffffffffffffffffff1673ffffffffffffffffffffffffffffffffffffffff168152602001908152602001600020819055508173ffffffffffffffffffffffffffffffffffffffff166108fc829081150290604051600060405180830381858888f19350505050151561025257fe5b5050565b6102608282610295565b5050565b60006020528060005260406000206000915090505481565b600082821115151561028a57fe5b818303905092915050565b6102e6816000808573ffffffffffffffffffffffffffffffffffffffff1673ffffffffffffffffffffffffffffffffffffffff1681526020019081526020016000205461034790919063ffffffff16565b6000808473ffffffffffffffffffffffffffffffffffffffff1673ffffffffffffffffffffffffffffffffffffffff1681526020019081526020016000208190555061033d8160015461034790919063ffffffff16565b6001819055505050565b600080828401905083811015151561035b57fe5b80915050929150505600a165627a7a72305820bb89ecf4861a68d0c0e01fc34a80e863ec544d514bebe0615a0487bad6a551500029",
  "source": "pragma solidity ^0.4.18;\n\n\nimport \"../payment/PullPayment.sol\";\n\n\n// mock class using PullPayment\ncontract PullPaymentMock is PullPayment {\n\n  function PullPaymentMock() public payable { }\n\n  // test helper function to call asyncSend\n  function callSend(address dest, uint256 amount) public {\n    asyncSend(dest, amount);\n  }\n\n}\n",
  "sourcePath": "/home/ancientevil/SmartContractProjects/SmartContractProjects/Skeletor/contracts/zeppelin-solidity/contracts/mocks/PullPaymentMock.sol",
  "compiler": {
    "name": "solc",
    "version": "0.4.18+commit.9cf6e910.Emscripten.clang"
  },
  "schemaVersion": "1.0.1",
  "updatedAt": "2018-03-18T19:19:14.559Z"
}