{
  "contractName": "ReentrancyAttack",
  "abi": [
    {
      "constant": false,
      "inputs": [
        {
          "name": "data",
          "type": "bytes4"
        }
      ],
      "name": "callSender",
      "outputs": [],
      "payable": false,
      "stateMutability": "nonpayable",
      "type": "function"
    }
  ],
  "bytecode": "0x6060604052341561000f57600080fd5b61013e8061001e6000396000f300606060405260043610610041576000357c0100000000000000000000000000000000000000000000000000000000900463ffffffff1680630a2df1ed14610046575b600080fd5b341561005157600080fd5b61008660048080357bffffffffffffffffffffffffffffffffffffffffffffffffffffffff1916906020019091905050610088565b005b3373ffffffffffffffffffffffffffffffffffffffff16817c010000000000000000000000000000000000000000000000000000000090046040518163ffffffff167c010000000000000000000000000000000000000000000000000000000002815260040160006040518083038160008761646e5a03f192505050151561010f57600080fd5b505600a165627a7a723058205d79376c7efac35996eaf980ce9846f921be5f6b833c79e417a6cf1cebaa3d410029",
  "source": "pragma solidity ^0.4.18;\n\n\ncontract ReentrancyAttack {\n\n  function callSender(bytes4 data) public {\n    require(msg.sender.call(data));\n  }\n\n}\n",
  "sourcePath": "/home/ancientevil/SmartContractProjects/SmartContractProjects/Skeletor/contracts/zeppelin-solidity/contracts/mocks/ReentrancyAttack.sol",
  "compiler": {
    "name": "solc",
    "version": "0.4.18+commit.9cf6e910.Emscripten.clang"
  },
  "schemaVersion": "1.0.1",
  "updatedAt": "2018-03-18T19:19:14.560Z"
}