{
  "contractName": "ReentrancyMock",
  "abi": [
    {
      "constant": false,
      "inputs": [],
      "name": "callback",
      "outputs": [],
      "payable": false,
      "stateMutability": "nonpayable",
      "type": "function"
    },
    {
      "constant": true,
      "inputs": [],
      "name": "counter",
      "outputs": [
        {
          "name": "",
          "type": "uint256"
        }
      ],
      "payable": false,
      "stateMutability": "view",
      "type": "function"
    },
    {
      "constant": false,
      "inputs": [
        {
          "name": "n",
          "type": "uint256"
        }
      ],
      "name": "countThisRecursive",
      "outputs": [],
      "payable": false,
      "stateMutability": "nonpayable",
      "type": "function"
    },
    {
      "constant": false,
      "inputs": [
        {
          "name": "n",
          "type": "uint256"
        }
      ],
      "name": "countLocalRecursive",
      "outputs": [],
      "payable": false,
      "stateMutability": "nonpayable",
      "type": "function"
    },
    {
      "constant": false,
      "inputs": [
        {
          "name": "attacker",
          "type": "address"
        }
      ],
      "name": "countAndCall",
      "outputs": [],
      "payable": false,
      "stateMutability": "nonpayable",
      "type": "function"
    },
    {
      "inputs": [],
      "payable": false,
      "stateMutability": "nonpayable",
      "type": "constructor"
    }
  ],
  "bytecode": "0x606060405260008060006101000a81548160ff021916908315150217905550341561002957600080fd5b60006001819055506104d1806100406000396000f30060606040526004361061006d576000357c0100000000000000000000000000000000000000000000000000000000900463ffffffff168063083b27321461007257806361bc221a146100875780638c5344fa146100b057806396ffa690146100d3578063b672ad8b146100f6575b600080fd5b341561007d57600080fd5b61008561012f565b005b341561009257600080fd5b61009a610188565b6040518082815260200191505060405180910390f35b34156100bb57600080fd5b6100d1600480803590602001909190505061018e565b005b34156100de57600080fd5b6100f460048080359060200190919050506102ce565b005b341561010157600080fd5b61012d600480803573ffffffffffffffffffffffffffffffffffffffff1690602001909190505061033e565b005b6000809054906101000a900460ff1615151561014a57600080fd5b60016000806101000a81548160ff02191690831515021790555061016c610493565b60008060006101000a81548160ff021916908315150217905550565b60015481565b6000806000809054906101000a900460ff161515156101ac57600080fd5b60016000806101000a81548160ff02191690831515021790555060405180807f636f756e74546869735265637572736976652875696e74323536290000000000815250601b0190506040518091039020915060008311156102af5761020f610493565b3073ffffffffffffffffffffffffffffffffffffffff16827c01000000000000000000000000000000000000000000000000000000009004600185036040518263ffffffff167c01000000000000000000000000000000000000000000000000000000000281526004018082815260200191505060006040518083038160008761646e5a03f1925050509050600115158115151415156102ae57600080fd5b5b60008060006101000a81548160ff021916908315150217905550505050565b6000809054906101000a900460ff161515156102e957600080fd5b60016000806101000a81548160ff021916908315150217905550600081111561032157610314610493565b610320600182036102ce565b5b60008060006101000a81548160ff02191690831515021790555050565b60008060009054906101000a900460ff1615151561035b57600080fd5b60016000806101000a81548160ff02191690831515021790555061037d610493565b60405180807f63616c6c6261636b282900000000000000000000000000000000000000000000815250600a019050604051809103902090508173ffffffffffffffffffffffffffffffffffffffff16630a2df1ed826040518263ffffffff167c010000000000000000000000000000000000000000000000000000000002815260040180827bffffffffffffffffffffffffffffffffffffffffffffffffffffffff19167bffffffffffffffffffffffffffffffffffffffffffffffffffffffff19168152602001915050600060405180830381600087803b151561046157600080fd5b6102c65a03f1151561047257600080fd5b50505060008060006101000a81548160ff0219169083151502179055505050565b600180600082825401925050819055505600a165627a7a723058207da1fd746d2b397bc9e3f3fee4b5a8188ebfbd4c28828649e192c97308c8a0b10029",
  "source": "pragma solidity ^0.4.18;\n\nimport \"../ReentrancyGuard.sol\";\nimport \"./ReentrancyAttack.sol\";\n\n\ncontract ReentrancyMock is ReentrancyGuard {\n\n  uint256 public counter;\n\n  function ReentrancyMock() public {\n    counter = 0;\n  }\n\n  function callback() external nonReentrant {\n    count();\n  }\n\n  function countLocalRecursive(uint256 n) public nonReentrant {\n    if (n > 0) {\n      count();\n      countLocalRecursive(n - 1);\n    }\n  }\n\n  function countThisRecursive(uint256 n) public nonReentrant {\n    bytes4 func = bytes4(keccak256(\"countThisRecursive(uint256)\"));\n    if (n > 0) {\n      count();\n      bool result = this.call(func, n - 1);\n      require(result == true);\n    }\n  }\n\n  function countAndCall(ReentrancyAttack attacker) public nonReentrant {\n    count();\n    bytes4 func = bytes4(keccak256(\"callback()\"));\n    attacker.callSender(func);\n  }\n\n  function count() private {\n    counter += 1;\n  }\n\n}\n",
  "sourcePath": "/home/ancientevil/SmartContractProjects/SmartContractProjects/Skeletor/contracts/zeppelin-solidity/contracts/mocks/ReentrancyMock.sol",
  "compiler": {
    "name": "solc",
    "version": "0.4.18+commit.9cf6e910.Emscripten.clang"
  },
  "schemaVersion": "1.0.1",
  "updatedAt": "2018-03-18T19:19:14.561Z"
}