{
  "contractName": "SafeMathMock",
  "abi": [
    {
      "constant": false,
      "inputs": [
        {
          "name": "a",
          "type": "uint256"
        },
        {
          "name": "b",
          "type": "uint256"
        }
      ],
      "name": "multiply",
      "outputs": [],
      "payable": false,
      "stateMutability": "nonpayable",
      "type": "function"
    },
    {
      "constant": false,
      "inputs": [
        {
          "name": "a",
          "type": "uint256"
        },
        {
          "name": "b",
          "type": "uint256"
        }
      ],
      "name": "subtract",
      "outputs": [],
      "payable": false,
      "stateMutability": "nonpayable",
      "type": "function"
    },
    {
      "constant": true,
      "inputs": [],
      "name": "result",
      "outputs": [
        {
          "name": "",
          "type": "uint256"
        }
      ],
      "payable": false,
      "stateMutability": "view",
      "type": "function"
    },
    {
      "constant": false,
      "inputs": [
        {
          "name": "a",
          "type": "uint256"
        },
        {
          "name": "b",
          "type": "uint256"
        }
      ],
      "name": "add",
      "outputs": [],
      "payable": false,
      "stateMutability": "nonpayable",
      "type": "function"
    }
  ],
  "bytecode": "0x6060604052341561000f57600080fd5b6101f48061001e6000396000f300606060405260043610610062576000357c0100000000000000000000000000000000000000000000000000000000900463ffffffff168063165c4a16146100675780633ef5e4451461009357806365372147146100bf578063771602f7146100e8575b600080fd5b341561007257600080fd5b6100916004808035906020019091908035906020019091905050610114565b005b341561009e57600080fd5b6100bd6004808035906020019091908035906020019091905050610128565b005b34156100ca57600080fd5b6100d261013c565b6040518082815260200191505060405180910390f35b34156100f357600080fd5b6101126004808035906020019091908035906020019091905050610142565b005b61011e8282610156565b6000819055505050565b6101328282610191565b6000819055505050565b60005481565b61014c82826101aa565b6000819055505050565b600080600084141561016b576000915061018a565b828402905082848281151561017c57fe5b0414151561018657fe5b8091505b5092915050565b600082821115151561019f57fe5b818303905092915050565b60008082840190508381101515156101be57fe5b80915050929150505600a165627a7a72305820aaa10dbaf90773d543140babcbde62153e04ccca1bacb797f9d697775e4424a00029",
  "source": "pragma solidity ^0.4.18;\n\n\nimport \"../math/SafeMath.sol\";\n\n\ncontract SafeMathMock {\n  uint256 public result;\n\n  function multiply(uint256 a, uint256 b) public {\n    result = SafeMath.mul(a, b);\n  }\n\n  function subtract(uint256 a, uint256 b) public {\n    result = SafeMath.sub(a, b);\n  }\n\n  function add(uint256 a, uint256 b) public {\n    result = SafeMath.add(a, b);\n  }\n}\n",
  "sourcePath": "/home/ancientevil/SmartContractProjects/SmartContractProjects/Skeletor/contracts/zeppelin-solidity/contracts/mocks/SafeMathMock.sol",
  "compiler": {
    "name": "solc",
    "version": "0.4.18+commit.9cf6e910.Emscripten.clang"
  },
  "schemaVersion": "1.0.1",
  "updatedAt": "2018-03-18T19:19:14.568Z"
}