{
  "contractName": "SecureTargetMock",
  "abi": [
    {
      "constant": false,
      "inputs": [],
      "name": "checkInvariant",
      "outputs": [
        {
          "name": "",
          "type": "bool"
        }
      ],
      "payable": false,
      "stateMutability": "nonpayable",
      "type": "function"
    }
  ],
  "bytecode": "0x60606040523415600e57600080fd5b60a38061001c6000396000f300606060405260043610603f576000357c0100000000000000000000000000000000000000000000000000000000900463ffffffff168063e79487da146044575b600080fd5b3415604e57600080fd5b6054606e565b604051808215151515815260200191505060405180910390f35b600060019050905600a165627a7a72305820030894f5258d34683bddb67d2f4200565bc1b080e7827cd7d11bca01b73944f80029",
  "source": "pragma solidity ^0.4.18;\n\nimport {Bounty, Target} from \"../../contracts/Bounty.sol\";\n\n\ncontract SecureTargetMock is Target {\n  function checkInvariant() public returns(bool) {\n    return true;\n  }\n}\n\n\ncontract SecureTargetBounty is Bounty {\n  function deployContract() internal returns (address) {\n    return new SecureTargetMock();\n  }\n}\n",
  "sourcePath": "/home/ancientevil/SmartContractProjects/SmartContractProjects/Skeletor/contracts/zeppelin-solidity/contracts/mocks/SecureTargetBounty.sol",
  "compiler": {
    "name": "solc",
    "version": "0.4.18+commit.9cf6e910.Emscripten.clang"
  },
  "schemaVersion": "1.0.1",
  "updatedAt": "2018-03-18T19:19:14.568Z"
}