{
  "contractName": "SkeletorFactory",
  "abi": [
    {
      "constant": true,
      "inputs": [
        {
          "name": "",
          "type": "uint256"
        }
      ],
      "name": "skeletons",
      "outputs": [
        {
          "name": "engaged",
          "type": "bool"
        },
        {
          "name": "name",
          "type": "string"
        },
        {
          "name": "charType",
          "type": "string"
        },
        {
          "name": "dna",
          "type": "uint256"
        },
        {
          "name": "rdyTime",
          "type": "uint256"
        },
        {
          "name": "level",
          "type": "uint32"
        },
        {
          "name": "wins",
          "type": "uint16"
        },
        {
          "name": "losses",
          "type": "uint16"
        },
        {
          "name": "totalHealth",
          "type": "uint16"
        },
        {
          "name": "totalMana",
          "type": "uint16"
        }
      ],
      "payable": false,
      "stateMutability": "view",
      "type": "function"
    },
    {
      "constant": true,
      "inputs": [],
      "name": "owner",
      "outputs": [
        {
          "name": "",
          "type": "address"
        }
      ],
      "payable": false,
      "stateMutability": "view",
      "type": "function"
    },
    {
      "constant": false,
      "inputs": [
        {
          "name": "newOwner",
          "type": "address"
        }
      ],
      "name": "transferOwnership",
      "outputs": [],
      "payable": false,
      "stateMutability": "nonpayable",
      "type": "function"
    },
    {
      "anonymous": false,
      "inputs": [
        {
          "indexed": false,
          "name": "name",
          "type": "string"
        },
        {
          "indexed": false,
          "name": "charType",
          "type": "string"
        },
        {
          "indexed": false,
          "name": "dna",
          "type": "uint256"
        }
      ],
      "name": "NewSkeleton",
      "type": "event"
    },
    {
      "anonymous": false,
      "inputs": [
        {
          "indexed": true,
          "name": "previousOwner",
          "type": "address"
        },
        {
          "indexed": true,
          "name": "newOwner",
          "type": "address"
        }
      ],
      "name": "OwnershipTransferred",
      "type": "event"
    }
  ],
  "bytecode": "0x606060405262015180600155336000806101000a81548173ffffffffffffffffffffffffffffffffffffffff021916908373ffffffffffffffffffffffffffffffffffffffff1602179055506104f08061005a6000396000f300606060405260043610610057576000357c0100000000000000000000000000000000000000000000000000000000900463ffffffff16806342ce274b1461005c5780638da5cb5b14610206578063f2fde38b1461025b575b600080fd5b341561006757600080fd5b61007d6004808035906020019091905050610294565b604051808b15151515815260200180602001806020018a81526020018981526020018863ffffffff1663ffffffff1681526020018761ffff1661ffff1681526020018661ffff1661ffff1681526020018561ffff1661ffff1681526020018461ffff1661ffff16815260200183810383528c81815460018160011615610100020316600290048152602001915080546001816001161561010002031660029004801561016a5780601f1061013f5761010080835404028352916020019161016a565b820191906000526020600020905b81548152906001019060200180831161014d57829003601f168201915b505083810382528b8181546001816001161561010002031660029004815260200191508054600181600116156101000203166002900480156101ed5780601f106101c2576101008083540402835291602001916101ed565b820191906000526020600020905b8154815290600101906020018083116101d057829003601f168201915b50509c5050505050505050505050505060405180910390f35b341561021157600080fd5b61021961034a565b604051808273ffffffffffffffffffffffffffffffffffffffff1673ffffffffffffffffffffffffffffffffffffffff16815260200191505060405180910390f35b341561026657600080fd5b610292600480803573ffffffffffffffffffffffffffffffffffffffff1690602001909190505061036f565b005b6002818154811015156102a357fe5b90600052602060002090600702016000915090508060000160009054906101000a900460ff1690806001019080600201908060030154908060040154908060050160009054906101000a900463ffffffff16908060050160049054906101000a900461ffff16908060050160069054906101000a900461ffff16908060050160089054906101000a900461ffff169080600501600a9054906101000a900461ffff1690508a565b6000809054906101000a900473ffffffffffffffffffffffffffffffffffffffff1681565b6000809054906101000a900473ffffffffffffffffffffffffffffffffffffffff1673ffffffffffffffffffffffffffffffffffffffff163373ffffffffffffffffffffffffffffffffffffffff161415156103ca57600080fd5b600073ffffffffffffffffffffffffffffffffffffffff168173ffffffffffffffffffffffffffffffffffffffff161415151561040657600080fd5b8073ffffffffffffffffffffffffffffffffffffffff166000809054906101000a900473ffffffffffffffffffffffffffffffffffffffff1673ffffffffffffffffffffffffffffffffffffffff167f8be0079c531659141344cd1fd0a4f28419497f9722a3daafe3b4186f6b6457e060405160405180910390a3806000806101000a81548173ffffffffffffffffffffffffffffffffffffffff021916908373ffffffffffffffffffffffffffffffffffffffff160217905550505600a165627a7a723058204a0162efdb12d955ca518c645c95ff27085e4464d956b36f2307a47249bc636c0029",
  "source": "pragma solidity ^0.4.18;\n\nimport \"./zeppelin-solidity/contracts/token/ERC721/ERC721.sol\";\nimport \"./zeppelin-solidity/contracts/ownership/Ownable.sol\";\nimport \"./zeppelin-solidity/contracts/math/SafeMath.sol\";\n\n/// @title SkeletorFactor\n/// @author LD2045\n/// @dev This contract will form the base layer (r00t) of an attempt to make a game like World of Warcraft on Etheruem using the ERC721 standard. \ncontract SkeletorFactory is Ownable {\n    /// @notice Declarations using SafeMath. These datatypes will be able to inherit contract.\n    using SafeMath for uint256;\n    using SafeMath for uint32;\n    using SafeMath for uint16;\n\n    uint coowlDown = 1 days;\n\n    event NewSkeleton(string name,\n                    string charType,\n                    uint dna);\n\n    struct Skeleton {\n        bool engaged;\n        string name;\n        string charType;\n        uint dna;\n        uint rdyTime;\n        uint32 level;\n        uint16 wins;\n        uint16 losses;\n        uint16 totalHealth;\n        uint16 totalMana;\n        mapping (string => uint16) weapons;\n    }\n\n    /// @notice An array(vector) of Skeletons. \n    Skeleton[] public skeletons;\n}",
  "sourcePath": "/home/ancientevil/SmartContractProjects/SmartContractProjects/Skeletor/contracts/skeletorFactory.sol",
  "compiler": {
    "name": "solc",
    "version": "0.4.18+commit.9cf6e910.Emscripten.clang"
  },
  "schemaVersion": "1.0.1",
  "updatedAt": "2018-03-18T19:19:14.517Z"
}