{
  "contractName": "TokenDestructible",
  "abi": [
    {
      "constant": true,
      "inputs": [],
      "name": "owner",
      "outputs": [
        {
          "name": "",
          "type": "address"
        }
      ],
      "payable": false,
      "stateMutability": "view",
      "type": "function"
    },
    {
      "constant": false,
      "inputs": [
        {
          "name": "newOwner",
          "type": "address"
        }
      ],
      "name": "transferOwnership",
      "outputs": [],
      "payable": false,
      "stateMutability": "nonpayable",
      "type": "function"
    },
    {
      "inputs": [],
      "payable": true,
      "stateMutability": "payable",
      "type": "constructor"
    },
    {
      "anonymous": false,
      "inputs": [
        {
          "indexed": true,
          "name": "previousOwner",
          "type": "address"
        },
        {
          "indexed": true,
          "name": "newOwner",
          "type": "address"
        }
      ],
      "name": "OwnershipTransferred",
      "type": "event"
    },
    {
      "constant": false,
      "inputs": [
        {
          "name": "tokens",
          "type": "address[]"
        }
      ],
      "name": "destroy",
      "outputs": [],
      "payable": false,
      "stateMutability": "nonpayable",
      "type": "function"
    }
  ],
  "bytecode": "0x6060604052336000806101000a81548173ffffffffffffffffffffffffffffffffffffffff021916908373ffffffffffffffffffffffffffffffffffffffff160217905550610561806100536000396000f300606060405260043610610057576000357c0100000000000000000000000000000000000000000000000000000000900463ffffffff1680638da5cb5b1461005c578063c6786e5a146100b1578063f2fde38b1461010b575b600080fd5b341561006757600080fd5b61006f610144565b604051808273ffffffffffffffffffffffffffffffffffffffff1673ffffffffffffffffffffffffffffffffffffffff16815260200191505060405180910390f35b34156100bc57600080fd5b610109600480803590602001908201803590602001908080602002602001604051908101604052809392919081815260200183836020028082843782019150505050505091905050610169565b005b341561011657600080fd5b610142600480803573ffffffffffffffffffffffffffffffffffffffff169060200190919050506103e0565b005b6000809054906101000a900473ffffffffffffffffffffffffffffffffffffffff1681565b60008060008060009054906101000a900473ffffffffffffffffffffffffffffffffffffffff1673ffffffffffffffffffffffffffffffffffffffff163373ffffffffffffffffffffffffffffffffffffffff161415156101c957600080fd5b600092505b83518310156103a65783838151811015156101e557fe5b9060200190602002015191508173ffffffffffffffffffffffffffffffffffffffff166370a08231306000604051602001526040518263ffffffff167c0100000000000000000000000000000000000000000000000000000000028152600401808273ffffffffffffffffffffffffffffffffffffffff1673ffffffffffffffffffffffffffffffffffffffff168152602001915050602060405180830381600087803b151561029457600080fd5b6102c65a03f115156102a557600080fd5b5050506040518051905090508173ffffffffffffffffffffffffffffffffffffffff1663a9059cbb6000809054906101000a900473ffffffffffffffffffffffffffffffffffffffff16836000604051602001526040518363ffffffff167c0100000000000000000000000000000000000000000000000000000000028152600401808373ffffffffffffffffffffffffffffffffffffffff1673ffffffffffffffffffffffffffffffffffffffff16815260200182815260200192505050602060405180830381600087803b151561037d57600080fd5b6102c65a03f1151561038e57600080fd5b505050604051805190505082806001019350506101ce565b6000809054906101000a900473ffffffffffffffffffffffffffffffffffffffff1673ffffffffffffffffffffffffffffffffffffffff16ff5b6000809054906101000a900473ffffffffffffffffffffffffffffffffffffffff1673ffffffffffffffffffffffffffffffffffffffff163373ffffffffffffffffffffffffffffffffffffffff1614151561043b57600080fd5b600073ffffffffffffffffffffffffffffffffffffffff168173ffffffffffffffffffffffffffffffffffffffff161415151561047757600080fd5b8073ffffffffffffffffffffffffffffffffffffffff166000809054906101000a900473ffffffffffffffffffffffffffffffffffffffff1673ffffffffffffffffffffffffffffffffffffffff167f8be0079c531659141344cd1fd0a4f28419497f9722a3daafe3b4186f6b6457e060405160405180910390a3806000806101000a81548173ffffffffffffffffffffffffffffffffffffffff021916908373ffffffffffffffffffffffffffffffffffffffff160217905550505600a165627a7a72305820570e2bf28ccf22bcbefb77d24be5624c2fd0fedf84dda27d3f1463f6721cd5620029",
  "source": "pragma solidity ^0.4.18;\r\n\r\nimport \"../ownership/Ownable.sol\";\r\nimport \"../token/ERC20/ERC20Basic.sol\";\r\n\r\n\r\n/**\r\n * @title TokenDestructible:\r\n * @author Remco Bloemen <remco@2π.com>\r\n * @dev Base contract that can be destroyed by owner. All funds in contract including\r\n * listed tokens will be sent to the owner.\r\n */\r\ncontract TokenDestructible is Ownable {\r\n\r\n  function TokenDestructible() public payable { }\r\n\r\n  /**\r\n   * @notice Terminate contract and refund to owner\r\n   * @param tokens List of addresses of ERC20 or ERC20Basic token contracts to\r\n   refund.\r\n   * @notice The called token contracts could try to re-enter this contract. Only\r\n   supply token contracts you trust.\r\n   */\r\n  function destroy(address[] tokens) onlyOwner public {\r\n\r\n    // Transfer tokens to owner\r\n    for (uint256 i = 0; i < tokens.length; i++) {\r\n      ERC20Basic token = ERC20Basic(tokens[i]);\r\n      uint256 balance = token.balanceOf(this);\r\n      token.transfer(owner, balance);\r\n    }\r\n\r\n    // Transfer Eth to owner and terminate contract\r\n    selfdestruct(owner);\r\n  }\r\n}\r\n",
  "sourcePath": "C:\\Users\\Luis.Escobar-Driver\\Documents\\SmartContractProjects\\Skeletor\\contracts\\zeppelin-solidity\\contracts\\lifecycle\\TokenDestructible.sol",
  "compiler": {
    "name": "solc",
    "version": "0.4.19+commit.c4cbbb05.Emscripten.clang"
  },
  "schemaVersion": "2.0.0",
  "updatedAt": "2018-03-21T19:51:18.248Z"
}