{
  "contractName": "WhitelistedCrowdsaleImpl",
  "abi": [
    {
      "constant": true,
      "inputs": [],
      "name": "rate",
      "outputs": [
        {
          "name": "",
          "type": "uint256"
        }
      ],
      "payable": false,
      "stateMutability": "view",
      "type": "function"
    },
    {
      "constant": true,
      "inputs": [],
      "name": "weiRaised",
      "outputs": [
        {
          "name": "",
          "type": "uint256"
        }
      ],
      "payable": false,
      "stateMutability": "view",
      "type": "function"
    },
    {
      "constant": true,
      "inputs": [],
      "name": "wallet",
      "outputs": [
        {
          "name": "",
          "type": "address"
        }
      ],
      "payable": false,
      "stateMutability": "view",
      "type": "function"
    },
    {
      "constant": false,
      "inputs": [
        {
          "name": "_beneficiary",
          "type": "address"
        }
      ],
      "name": "removeFromWhitelist",
      "outputs": [],
      "payable": false,
      "stateMutability": "nonpayable",
      "type": "function"
    },
    {
      "constant": false,
      "inputs": [
        {
          "name": "_beneficiaries",
          "type": "address[]"
        }
      ],
      "name": "addManyToWhitelist",
      "outputs": [],
      "payable": false,
      "stateMutability": "nonpayable",
      "type": "function"
    },
    {
      "constant": true,
      "inputs": [],
      "name": "owner",
      "outputs": [
        {
          "name": "",
          "type": "address"
        }
      ],
      "payable": false,
      "stateMutability": "view",
      "type": "function"
    },
    {
      "constant": true,
      "inputs": [
        {
          "name": "",
          "type": "address"
        }
      ],
      "name": "whitelist",
      "outputs": [
        {
          "name": "",
          "type": "bool"
        }
      ],
      "payable": false,
      "stateMutability": "view",
      "type": "function"
    },
    {
      "constant": false,
      "inputs": [
        {
          "name": "_beneficiary",
          "type": "address"
        }
      ],
      "name": "addToWhitelist",
      "outputs": [],
      "payable": false,
      "stateMutability": "nonpayable",
      "type": "function"
    },
    {
      "constant": false,
      "inputs": [
        {
          "name": "_beneficiary",
          "type": "address"
        }
      ],
      "name": "buyTokens",
      "outputs": [],
      "payable": true,
      "stateMutability": "payable",
      "type": "function"
    },
    {
      "constant": false,
      "inputs": [
        {
          "name": "newOwner",
          "type": "address"
        }
      ],
      "name": "transferOwnership",
      "outputs": [],
      "payable": false,
      "stateMutability": "nonpayable",
      "type": "function"
    },
    {
      "constant": true,
      "inputs": [],
      "name": "token",
      "outputs": [
        {
          "name": "",
          "type": "address"
        }
      ],
      "payable": false,
      "stateMutability": "view",
      "type": "function"
    },
    {
      "inputs": [
        {
          "name": "_rate",
          "type": "uint256"
        },
        {
          "name": "_wallet",
          "type": "address"
        },
        {
          "name": "_token",
          "type": "address"
        }
      ],
      "payable": false,
      "stateMutability": "nonpayable",
      "type": "constructor"
    },
    {
      "payable": true,
      "stateMutability": "payable",
      "type": "fallback"
    },
    {
      "anonymous": false,
      "inputs": [
        {
          "indexed": true,
          "name": "previousOwner",
          "type": "address"
        },
        {
          "indexed": true,
          "name": "newOwner",
          "type": "address"
        }
      ],
      "name": "OwnershipTransferred",
      "type": "event"
    },
    {
      "anonymous": false,
      "inputs": [
        {
          "indexed": true,
          "name": "purchaser",
          "type": "address"
        },
        {
          "indexed": true,
          "name": "beneficiary",
          "type": "address"
        },
        {
          "indexed": false,
          "name": "value",
          "type": "uint256"
        },
        {
          "indexed": false,
          "name": "amount",
          "type": "uint256"
        }
      ],
      "name": "TokenPurchase",
      "type": "event"
    }
  ],
  "bytecode": "0x6060604052341561000f57600080fd5b604051606080610cfc8339810160405280805190602001909190805190602001909190805190602001909190505082828260008311151561004f57600080fd5b600073ffffffffffffffffffffffffffffffffffffffff168273ffffffffffffffffffffffffffffffffffffffff161415151561008b57600080fd5b600073ffffffffffffffffffffffffffffffffffffffff168173ffffffffffffffffffffffffffffffffffffffff16141515156100c757600080fd5b8260028190555081600160006101000a81548173ffffffffffffffffffffffffffffffffffffffff021916908373ffffffffffffffffffffffffffffffffffffffff160217905550806000806101000a81548173ffffffffffffffffffffffffffffffffffffffff021916908373ffffffffffffffffffffffffffffffffffffffff16021790555050505033600460006101000a81548173ffffffffffffffffffffffffffffffffffffffff021916908373ffffffffffffffffffffffffffffffffffffffff160217905550505050610b57806101a56000396000f3006060604052600436106100af576000357c0100000000000000000000000000000000000000000000000000000000900463ffffffff1680632c4e722e146100ba5780634042b66f146100e3578063521eb2731461010c5780638ab1d681146101615780638c10671c1461019a5780638da5cb5b146101c85780639b19251a1461021d578063e43252d71461026e578063ec8ac4d8146102a7578063f2fde38b146102d5578063fc0c546a1461030e575b6100b833610363565b005b34156100c557600080fd5b6100cd610431565b6040518082815260200191505060405180910390f35b34156100ee57600080fd5b6100f6610437565b6040518082815260200191505060405180910390f35b341561011757600080fd5b61011f61043d565b604051808273ffffffffffffffffffffffffffffffffffffffff1673ffffffffffffffffffffffffffffffffffffffff16815260200191505060405180910390f35b341561016c57600080fd5b610198600480803573ffffffffffffffffffffffffffffffffffffffff16906020019091905050610463565b005b34156101a557600080fd5b6101c66004808035906020019082018035906020019190919290505061051a565b005b34156101d357600080fd5b6101db61061c565b604051808273ffffffffffffffffffffffffffffffffffffffff1673ffffffffffffffffffffffffffffffffffffffff16815260200191505060405180910390f35b341561022857600080fd5b610254600480803573ffffffffffffffffffffffffffffffffffffffff16906020019091905050610642565b604051808215151515815260200191505060405180910390f35b341561027957600080fd5b6102a5600480803573ffffffffffffffffffffffffffffffffffffffff16906020019091905050610662565b005b6102d3600480803573ffffffffffffffffffffffffffffffffffffffff16906020019091905050610363565b005b34156102e057600080fd5b61030c600480803573ffffffffffffffffffffffffffffffffffffffff16906020019091905050610719565b005b341561031957600080fd5b610321610871565b604051808273ffffffffffffffffffffffffffffffffffffffff1673ffffffffffffffffffffffffffffffffffffffff16815260200191505060405180910390f35b6000803491506103738383610896565b61037c826108fe565b90506103938260035461091c90919063ffffffff16565b6003819055506103a3838261093a565b8273ffffffffffffffffffffffffffffffffffffffff163373ffffffffffffffffffffffffffffffffffffffff167f623b3804fa71d67900d064613da8f94b9617215ee90799290593e1745087ad188484604051808381526020018281526020019250505060405180910390a361041a8383610948565b61042261094c565b61042c83836109b0565b505050565b60025481565b60035481565b600160009054906101000a900473ffffffffffffffffffffffffffffffffffffffff1681565b600460009054906101000a900473ffffffffffffffffffffffffffffffffffffffff1673ffffffffffffffffffffffffffffffffffffffff163373ffffffffffffffffffffffffffffffffffffffff161415156104bf57600080fd5b6000600560008373ffffffffffffffffffffffffffffffffffffffff1673ffffffffffffffffffffffffffffffffffffffff16815260200190815260200160002060006101000a81548160ff02191690831515021790555050565b6000600460009054906101000a900473ffffffffffffffffffffffffffffffffffffffff1673ffffffffffffffffffffffffffffffffffffffff163373ffffffffffffffffffffffffffffffffffffffff1614151561057857600080fd5b600090505b8282905081101561061757600160056000858585818110151561059c57fe5b9050602002013573ffffffffffffffffffffffffffffffffffffffff1673ffffffffffffffffffffffffffffffffffffffff1673ffffffffffffffffffffffffffffffffffffffff16815260200190815260200160002060006101000a81548160ff021916908315150217905550808060010191505061057d565b505050565b600460009054906101000a900473ffffffffffffffffffffffffffffffffffffffff1681565b60056020528060005260406000206000915054906101000a900460ff1681565b600460009054906101000a900473ffffffffffffffffffffffffffffffffffffffff1673ffffffffffffffffffffffffffffffffffffffff163373ffffffffffffffffffffffffffffffffffffffff161415156106be57600080fd5b6001600560008373ffffffffffffffffffffffffffffffffffffffff1673ffffffffffffffffffffffffffffffffffffffff16815260200190815260200160002060006101000a81548160ff02191690831515021790555050565b600460009054906101000a900473ffffffffffffffffffffffffffffffffffffffff1673ffffffffffffffffffffffffffffffffffffffff163373ffffffffffffffffffffffffffffffffffffffff1614151561077557600080fd5b600073ffffffffffffffffffffffffffffffffffffffff168173ffffffffffffffffffffffffffffffffffffffff16141515156107b157600080fd5b8073ffffffffffffffffffffffffffffffffffffffff16600460009054906101000a900473ffffffffffffffffffffffffffffffffffffffff1673ffffffffffffffffffffffffffffffffffffffff167f8be0079c531659141344cd1fd0a4f28419497f9722a3daafe3b4186f6b6457e060405160405180910390a380600460006101000a81548173ffffffffffffffffffffffffffffffffffffffff021916908373ffffffffffffffffffffffffffffffffffffffff16021790555050565b6000809054906101000a900473ffffffffffffffffffffffffffffffffffffffff1681565b81600560008273ffffffffffffffffffffffffffffffffffffffff1673ffffffffffffffffffffffffffffffffffffffff16815260200190815260200160002060009054906101000a900460ff1615156108ef57600080fd5b6108f983836109b4565b505050565b600061091560025483610a0490919063ffffffff16565b9050919050565b600080828401905083811015151561093057fe5b8091505092915050565b6109448282610a3f565b5050565b5050565b600160009054906101000a900473ffffffffffffffffffffffffffffffffffffffff1673ffffffffffffffffffffffffffffffffffffffff166108fc349081150290604051600060405180830381858888f1935050505015156109ae57600080fd5b565b5050565b600073ffffffffffffffffffffffffffffffffffffffff168273ffffffffffffffffffffffffffffffffffffffff16141515156109f057600080fd5b60008114151515610a0057600080fd5b5050565b6000806000841415610a195760009150610a38565b8284029050828482811515610a2a57fe5b04141515610a3457fe5b8091505b5092915050565b6000809054906101000a900473ffffffffffffffffffffffffffffffffffffffff1673ffffffffffffffffffffffffffffffffffffffff1663a9059cbb83836000604051602001526040518363ffffffff167c0100000000000000000000000000000000000000000000000000000000028152600401808373ffffffffffffffffffffffffffffffffffffffff1673ffffffffffffffffffffffffffffffffffffffff16815260200182815260200192505050602060405180830381600087803b1515610b0b57600080fd5b6102c65a03f11515610b1c57600080fd5b505050604051805190505050505600a165627a7a723058208b67a21cd831f478a9379cbe8246b49596d89474e8d299194066c73f05df482a0029",
  "source": "pragma solidity ^0.4.18;\n\nimport \"../token/ERC20/ERC20.sol\";\nimport \"../crowdsale/validation/WhitelistedCrowdsale.sol\";\n\n\ncontract WhitelistedCrowdsaleImpl is WhitelistedCrowdsale {\n\n  function WhitelistedCrowdsaleImpl (\n    uint256 _rate,\n    address _wallet,\n    ERC20 _token\n  ) \n    public\n    Crowdsale(_rate, _wallet, _token)\n  {\n  }\n\n}\n",
  "sourcePath": "/home/ancientevil/SmartContractProjects/SmartContractProjects/Skeletor/contracts/zeppelin-solidity/contracts/mocks/WhitelistedCrowdsaleImpl.sol",
  "compiler": {
    "name": "solc",
    "version": "0.4.18+commit.9cf6e910.Emscripten.clang"
  },
  "schemaVersion": "1.0.1",
  "updatedAt": "2018-03-18T19:19:14.569Z"
}